:1063E2007F021243971260E8126766126916124C16
:1063F200941242721261EE125D1512584B12655AD6
:10640200126916122616125A7112630F1241368041
:02641200F8226E
:04194E0041074E00FF
:03009B0002679D5C
:10679D00C0E0C083C082C09175910090074EE5D9CD
:0A67AD00F0D091D082D083D0E0320A
:1051BA009007151207EFE4F59143D601F59143D70D
:1051CA0001F59143D702F59153D6EFF59153D6F7EE
:1051DA007B08FAF9F8900715E0FCA3E0FDA3E0FECE
:1051EA00A3E0FF12073C900719E0F8A3E0F9A3E057
:1051FA00FAA3E0FB12073CEF24FFFFEE34FFFEEDBB
:10520A0034FFFDEC34FFFCEFE48FDB53DCF07B086A
:10521A00FAF9F8900715E0FCA3E0FDA3E0FEA3E08D
:10522A00FF12073C900719E0F8A3E0F9A3E0FAA3FC
:10523A00E0FB12073CEF24FFFFEE34FFFEED34FFE4
:10524A00FDEC34FFFC78081207DCEF540F42DCE473
:0E525A00F59143D74053D7CFF59143D680222C
:10689B00E4F59153D6FDE5DF5402640260F8AFD9FD
:0168AB0022CA
:10000E00E4F59153D6FB8FD9E5DF440860FAE4F5A9
:05001E009153D6FB2206
:040003008F828E83D7
:03000700E493FF80
:01000A0022D3
:10233C00EE7016EF24FE600B04700EE4F59153E181
:10234C00EF8006E4F59143E110EDB4110040030277
:10235C00260F902365F82828730223980223BE02C7
:10236C0023E702241002243902246202248B022463
:10237C00B40225DD0225F50224DD022508022533F1
:10238C0002255E0225890225B302260375910253AC
:10239C00F40F43F41075910143B52053B6DF7591DA
:1023AC0001E4F5CE43CE01F59153A1F043E10102D6
:1023BC00260F75910253F4F043F40175910143B566
:1023CC001053B6EF759101E4F5CE43CE02F591535F
:1023DC00A1F043A10143E10102260F75910253F3D1
:1023EC000F43F31075910143B50853B6F77591017E
:1023FC00E4F5CE43CE04F59153A1F043A10243E1A1
:10240C000102260F75910253F3F043F3017591010C
:10241C0043B50453B6FB759101E4F5CE43CE08F5F4
:10242C009153A1F043A10343E10102260F759102E0
:10243C0053F20F43F21075910143B50253B6FD757B
:10244C009101E4F5CE43CE10F59153A1F043A104D4
:10245C0043E10102260F75910253F2F043F201752C
:10246C00910143B50153B6FE759101E4F5CE43CE0F
:10247C0020F59153A1F043A10543E10102260F750C
:10248C00910253F60F43F61075910143C20253C3E8
:10249C00FD759101E4F5CE43CE40F59153A1F04387
:1024AC00A10643E10102260F75910253F7F043F7A1
:1024BC000175910143C20453C3FB759101E4F5CE40
:1024CC0043CE80F59153A1F043A10743E1010226CD
:1024DC000F75910253F6F043F60175910143C20159
:1024EC0053C3FEE4F591759102F5CE43CE04F591FC
:1024FC0053A13043A10A43E10102260F7591025307
:10250C00950F43951075910243848053857FE4F5B4
:10251C0091759102F5CE43CE08F59153A13043A1AC
:10252C000B43E10102260F7591025395F04395017F
:10253C007591024384405385BFE4F591759102F582
:10254C00CE43CE10F59153A13043A10C43E10102CF
:10255C00260F75910253940F439410759102438486
:10256C00205385DFE4F591759102F5CE43CE20F52D
:10257C009153A13043A10D43E10102260F75910245
:10258C005394F04394017591024384105385EFE406
:10259C00F591759102F5CE43CE40F59153A13043A0
:1025AC00A10E43E101805C75910253F50F43F510C8
:1025BC0075910143B58053B67FE4F591759102F5A1
:1025CC00CE43CE80F59153A13043A10F43E101805E
:1025DC0032E4F59153E1FEF59143A140F59153A1FD
:1025EC00F043A10843E101801AE4F59153A1F043B3
:1025FC00A10943E101800CE4F59153A1F043A10A38
:0A260C0043E101E4F59143E10122EE
:07697800E4F59153E1FE225A
:1065000090074AEEF0A3EFF0E4F591EFF5CB90079A
:106510004AE0F5E4ED14F5E5EB14600A04700DE4CF
:0D652000F59143E78022E4F59153E77F22D7
:10678200E4F59153E78FEF5407FFC454F042E75307
:0B679200E2F1ED5407FF25E042E22297
:105B4200E4F591EF14600F146014146019240370CB
:105B52001B53A1CF801653A1CF43A110800E53A196
:105B6200CF43A120800653A1CF43A130ED14600F93
:105B72001460141460192403701B53E1F38016534C
:105B8200E1F343E104800E53E1F343E1088006535D
:105B9200E1F343E10CAF038FE3E4F59153A1BF437B
:035BA200E10222FB
:07697F00E4F59153E1FD2254
:1064D200E4F591EF14600704702353A8BF22ED1472
:1064E200600D24FE60112403701043E130800B43E1
:0E64F200E10153E1DF800353E1CF43A84022D4
:1057D400E4F591A2AF9205C2AF75C7AA75C7554348
:1057E4009F01A20592AF75AF0475A60DF5A7F591BB
:1057F400A2AF9205C2AF75C7AA75C75543A401A24B
:105804000592AFE5AE540FFD75A60CE4F591A2AF79
:105814009205C2AF75C7AA75C75543A401A20592E4
:10582400AFAFAEEF75F010A47C002DFFEC35F0FEA9
:10583400E4F591A2AF9205C2AF75C7AA75C75553D7
:065844009FFEA20592AFD9
:01584A00223B
:10491700EF14601B04702E759101A2AF9205C2AF10
:1049270075C7AA75C75553A9FEA20592AF8016751C
:104937009101A2AF9205C2AF75C7AA75C75543A922
:1049470001A20592AFED14601B04702E759101A2B0
:10495700AF9205C2AF75C7AA75C75543A902A2058D
:1049670092AF8016759101A2AF9205C2AF75C7AA23
:1049770075C75553A9FDA20592AFEB1460211460CA
:104987003514604914605D2404706F759101A2AFFE
:104997009205C2AF75C7AA75C755A20592AF227512
:1049A7009101A2AF9205C2AF75C7AA75C75543A9B2
:1049B70010A20592AF22759101A2AF9205C2AF7501
:1049C700C7AA75C75543A920A20592AF22759101C1
:1049D700A2AF9205C2AF75C7AA75C75543A930A242
:1049E7000592AF22759101A2AF9205C2AF75C7AA12
:0B49F70075C75543A940A20592AF22EE
:101D1100AE03EEC454F02F12082C1D4F001D5701C5
:101D21001D5F021D67031D6F041D77051D7F061DC5
:101D310087071D8F101D97111D9F121DA7131DAF22
:101D4100141DB7151DBF161DC71700001DCD7591B8
:101D51000153E9FE807675910153E9FD806E75911D
:101D61000153E9FB806675910153E9F7805E759136
:101D71000153E9EF805675910153E9DF804E75916A
:101D81000153E9BF804675910153E97F803E75910A
:101D91000143E901803675910143E902802E759175
:101DA1000143E904802675910143E908801E75917C
:101DB1000143E910801675910143E920800E759168
:101DC1000143E940800675910143E980AE05EEC407
:101DD10054F02F12082C1E23001E32011E41021E38
:101DE10050031E5F041E6E051E7D061E8C071E9B82
:101DF100101EAA111EB9121EC8131ED7141EE615F5
:101E01001EF5161F03171F11201F1F211F2D221F33
:101E11003B231F49241F57251F65261F73270000D9
:101E21001F7F75910143EA0175910153EBFE021F7A
:101E31007F75910143EA0275910153EBFD021F7F0A
:101E410075910143EA0475910153EBFB021F7F7504
:101E5100910143EA0875910153EBF7021F7F7591D8
:101E61000143EA1075910153EBEF021F7F75910158
:101E710043EA2075910153EBDF021F7F7591014306
:101E8100EA4075910153EBBF021F7F75910143EA4F
:101E91008075910153EB7F021F7F75910153EAFE1B
:101EA10075910143EB01021F7F75910153EAFD75A5
:101EB100910143EB02021F7F75910153EAFB75917A
:101EC1000143EB04021F7F75910153EAF7759101FC
:101ED10043EB08021F7F75910153EAEF75910143AE
:101EE100EB10021F7F75910153EADF75910143EBFE
:101EF10020021F7F75910153EABF75910143EB40A9
:101F0100807C75910153EA7F75910143EB80806E6E
:101F110075910143EA0175910143EB01806075916F
:101F21000143EA0275910143EB028052759101432D
:101F3100EA0475910143EB04804475910143EA0879
:101F410075910143EB08803675910143EA10759153
:101F51000143EB10802875910143EA2075910143FB
:101F6100EB20801A75910143EA4075910143EB40E2
:101F7100800C75910143EA8075910143EB80EFB4C8
:101F81000800400302204E901F8FF8282873021F7B
:101F9100A7021FBD021FD2021FE7021FFC02201170
:101FA10002202602203BE4F5A19006D4E0FFC454B0
:101FB100F0FFA3E0540F2FF5A102204EE4F5A2900B
:101FC10006D4E0FFC454F0FFA3E0540F2FF5A28024
:101FD1007CE4F5A39006D4E0FFC454F0FFA3E054E1
:101FE1000F2FF5A38067E4F5A49006D4E0FFC45455
:101FF100F0FFA3E0540F2FF5A48052E4F5A590065D
:10200100D4E0FFC454F0FFA3E0540F2FF5A5803DA9
:10201100E4F5A69006D4E0FFC454F0FFA3E0540F0A
:102021002FF5A68028E4F5A79006D4E0FFC454F06C
:10203100FFA3E0540F2FF5A78013E4F5AF9006D46A
:10204100E0FFC454F0FFA3E0540F2FF5AFE4F59186
:04205100439B022289
:1054DE00759101EB14604204707CEFB407005076B6
:1054EE009054F5F828287302550A02550E025512EB
:1054FE0002551602551A02551E025522ED429222EF
:10550E00ED429322ED429422ED429522ED429622F7
:10551E00ED429722ED42972222EFB40700503790CA
:10552E005534F828287302554902554D025551023B
:10553E00555502555902555D025561ED428A22EDCF
:10554E00428B22ED428C22ED428D22ED428E22EDD7
:07555E00428F22ED428F2273
:10531300759101EB14604F0460030253ADEFB407C2
:105323000040030253AD905330F8282873025345CD
:1053330002534A02534F02535402535902535E021B
:105343005363EDF4529222EDF4529322EDF452940E
:1053530022EDF4529522EDF4529622EDF452972267
:10536300EDF452972222EFB40700503E905376F8A3
:1053730028287302538B02539002539502539A02C7
:10538300539F0253A40253A9EDF4528A22EDF4521F
:105393008B22EDF4528C22EDF4528D22EDF4528ED9
:0B53A30022EDF4528F22EDF4528F2215
:074AEA00A9059006D8EFF0CA
:104AF100759101EFB407005044904B01F8282873D9
:104B0100024B16024B1C024B22024B28024B2E0277
:104B11004B34024B3AACB1AEB28022ACB3AEB480EE
:104B21001CACB5AEB68016ACC2AEC38010ACB9AE8B
:104B3100BA800AACBDAEBE8004AC84AE85EB146015
:104B41001414601A14602024037022E9F4FF5CFC41
:104B5100EE5FFE8018E9F45CFCEE49FE800FEC4943
:104B6100FCE9F45EFE8006EC49FCEE49FE9006D8B5
:104B7100E0B407005044904B7EF8282873024B9311
:104B8100024B99024B9F024BA5024BAB024BB10268
:104B91004BB78CB18EB280228CB38EB4801C8CB595
:104BA1008EB680168CC28EC380108CB98EBA800AE4
:0D4BB1008CBD8EBE80048C848E85E4F59151
:014BBE0022D4
:105A0700E4F591EF14603304705FE47B04FAF9F86E
:105A17009006FBE0FCA3E0FDA3E0FEA3E0FF120776
:105A27003C9006FFE0F8A3E0F9A3E0FAA3E0FB123D
:105A3700073CEF14F5BE43C04022E47B04FAF9F8B3
:105A47009006FBE0FCA3E0FDA3E0FEA3E0FF120746
:105A57003C9006FFE0F8A3E0F9A3E0FAA3E0FB120D
:0A5A6700073CEF14F5B543E84022B8
:10685300E4F591EF14600704700753C0BF2253E8B7
:02686300BF2252
:1067D000E4F591EF14600A04700DE4F591439B0118
:0867E00022E4F591439C202204
:1067E800E4F591EF14600A04700DE4F591539BFEF3
:0867F80022E4F591539CDF221D
:10682D00E4F591EF146007047006AEBD8002AEB4BE
:02683D00AF06A4
:01683F002236
:105D6D00EF14602B04704FED146011146015146066
:105D7D00192403701AE4F5918BC180137591028B70
:105D8D00A1800C7591028BA280057591028BA3EDFC
:105D9D0014601014601314601624037019E4F59147
:105DAD008BB2227591028BA4227591028BA522755F
:075DBD009102AF038FA62243
:10686500E4F591EF14600704700743BF062243B6B1
:026875000622F9
:10687700E4F591EF14600704700753BFFB2253B68A
:02688700FB22F2
:10688900E4F591EF14600704700753BFFE2253B675
:02689900FE22DD
:1068AC00759102EF146006047006ED42CFED42D7ED
:0168BC0022B9
:10684000759102EF146007047008EDF452CFEDF477
:03685000F5D72257
:0419520041074F00FA
:0300B30002674A97
:10674A00C0E0C083C082C091759102D20690074F03
:0C675A00E5D9F0D091D082D083D0E0329D
:104FA40090071D1207EF75910243E60175910243C4
:104FB400E70175910243E70275910253E6EF75919B
:104FC4000253E6F7E47B08FAF9F890071DE0FCA326
:104FD400E0FDA3E0FEA3E0FF12073C900721E0F808
:104FE400A3E0F9A3E0FAA3E0FB12073CEF24FFFFE0
:104FF400EE34FFFEED34FFFDEC34FFFCEFE48FDB19
:1050040053DCF07B08FAF9F890071DE0FCA3E0FDFF
:10501400A3E0FEA3E0FF12073C900721E0F8A3E021
:10502400F9A3E0FAA3E0FB12073CEF24FFFFEE3400
:10503400FFFEED34FFFDEC34FFFC78081207DCEFD3
:10504400540F42DC75910243E74053E7CF75910258
:0450540043E680228D
:10007E0075910253E6FDE5DF60067E007F01800488
:0C008E007E007F00EF64024E60ECAFD9F2
:01009A002243
:10009E0075910253E6FB8FD9E5DF30E3FB759102D4
:0400AE0053E6FB22F8
:06195600C100C101C10245
:1064140075910253F60F43F66075910153C2FD5313
:10642400C3FD9006D57402F0A31207FB0001C2005D
:106434007F007E367D6E7C011238F5439802D200CF
:016444002235
:030023000266EF83
:1066EF00C0E0C083C082C09130980BD20290074C9B
:0F66FF00E599F05398FED091D082D083D0E0324D
:1038F5009006D11207EF9006D5E024FE605D1470A6
:10390500030239ED24FD600D1470030239ED240620
:103915006003023A71E4F591759850438920438715
:1039250080F591438E10F59153C4DF7B10FAF9F8B9
:103935009006D1E0FCA3E0FDA3E0FEA3E0FF1207A3
:103945003C9006D6E0F8A3E0F9A3E0FAA3E0FB1269
:10395500073CEFF404F58D43884022E4F591759812
:103965005043878053C4F8F59143C4207B10FAF97E
:10397500F89006D1E0FCA3E0FDA3E0FEA3E0FF1272
:10398500073C9006D6E0F8A3E0F9A3E0FAA3E0FB34
:1039950012073CC3E49FFFE49EFE74019DFDE49C79
:1039A500FC78081207DC8FC6E47B10FAF9F890065C
:1039B500D1E0FCA3E0FDA3E0FEA3E0FF12073C90ED
:1039C50006D6E0F8A3E0F9A3E0FAA3E0FB12073C72
:1039D500C3E49FFFE49EFE74019DFDE49CFCEFE4BF
:1039E5008FC5F59143C40822E4F59175F85075C467
:1039F500887B10FAF9F89006D1E0FCA3E0FDA3E07E
:103A0500FEA3E0FF12073C9006D6E0F8A3E0F9A379
:103A1500E0FAA3E0FB12073CC3E49FFFE49EFE74BB
:103A2500019DFDE49CFC78081207DC8FC6E47B1041
:103A3500FAF9F89006D1E0FCA3E0FDA3E0FEA3E0CF
:103A4500FF12073C9006D6E0F8A3E0F9A3E0FAA33D
:103A5500E0FB12073CC3E49FFFE49EFE74019DFD5D
:0D3A6500E49CFCEFE48FC5F59143C40822FA
:10670E00E4F591EF24F9600C0470103098FDAE9909
:0D671E00C298800730F8FDAE9AC2F8AF06B1
:01672B00224B
:10666E00E4F591EF24F9600D047015C2998D9930FF
:10667E0099FDC29922C2F9AF058F9A30F9FDC2F980
:01668E0022E9
:10652D00EF24F96013047024ED14600704701D53FB
:10653D00A8EF2243A8102222ED14600A04700DE486
:0D654D00F591539CFE22E4F591439C012240
:1058BE00EF14600B04700EE4F591538EBF8006E476
:1058CE00F591438E40759101ED24FE602024FE601B
:1058DE002324FC602624F8602924F0602C24E06048
:1058EE002F24C06032247F703453DFF82253DFF848
:1058FE0043DF022253DFF843DF022253DFF843DF98
:10590E00032253DFF843DF042253DFF843DF05227F
:0E591E0053DFF843DF062253DFF843DF072292
:102E2B00759101ED14600C1460112402701353DFC3
:102E3B003F800E53DF3F43DF40800653DF3F43DFCE
:102E4B0080EB14600804700853DFEF800343DF103E
:102E5B00EF146075147003022F2A147003022F8075
:102E6B00147003022FD614700302302B2405600359
:102E7B0002307E9006D9E0FEA3E0FFE4FCFD900655
:102E8B00D5E0F8A3E0F9A3E0FAA3E0FB1206B1E466
:102E9B007B64FAF9F812073C78081207DC8FD290A2
:102EAB0006D9E0FEA3E0FFE4FCFD9006D5E0F8A315
:102EBB00E0F9A3E0FAA3E0FB1206B1E47B64FAF9B4
:102ECB00F812073C8FDA02307E9006D9E0FEA3E0C1
:102EDB00FFE4FCFD9006D5E0F8A3E0F9A3E0FAA32C
:102EEB00E0FB1206B1E47B64FAF9F812073C7808B0
:102EFB001207DC8FD39006D9E0FEA3E0FFE4FCFDC4
:102F0B009006D5E0F8A3E0F9A3E0FAA3E0FB1206E4
:102F1B00B1E47B64FAF9F812073C8FDB02307E9048
:102F2B0006D9E0FEA3E0FFE4FCFD9006D5E0F8A394
:102F3B00E0F9A3E0FAA3E0FB1206B1E47B64FAF933
:102F4B00F812073C78081207DC8FD49006D9E0FE04
:102F5B00A3E0FFE4FCFD9006D5E0F8A3E0F9A3E0C5
:102F6B00FAA3E0FB1206B1E47B64FAF9F812073C12
:102F7B008FDC02307E9006D9E0FEA3E0FFE4FCFD7F
:102F8B009006D5E0F8A3E0F9A3E0FAA3E0FB120664
:102F9B00B1E47B64FAF9F812073C78081207DC8F6E
:102FAB00D59006D9E0FEA3E0FFE4FCFD9006D5E04A
:102FBB00F8A3E0F9A3E0FAA3E0FB1206B1E47B640B
:102FCB00FAF9F812073C8FDD02307E9006D9E0FE4D
:102FDB00A3E0FFE4FCFD9006D5E0F8A3E0F9A3E045
:102FEB00FAA3E0FB1206B1E47B64FAF9F812073C92
:102FFB0078081207DC8FC49006D9E0FEA3E0FFE44B
:10300B00FCFD9006D5E0F8A3E0F9A3E0FAA3E0FB02
:10301B001206B1E47B64FAF9F812073C8FCC8053AB
:10302B009006D9E0FEA3E0FFE4FCFD9006D5E0F8A6
:10303B00A3E0F9A3E0FAA3E0FB1206B1E47B64FA88
:10304B00F9F812073C78081207DC8FC59006D9E017
:10305B00FEA3E0FFE4FCFD9006D5E0F8A3E0F9A3A6
:10306B00E0FAA3E0FB1206B1E47B64FAF9F812076D
:10307B003C8FCD9006D5E0FCA3E0FDA3E0FEA3E0E2
:10308B00FF78081207DC8FD19006D5E0A3E0A3E010
:05309B00A3E0F5D922BD
:105C0400759101A2AF9205C2AFAE05EE541075C7EF
:105C1400AA75C75542F9EF14601514601D14602568
:105C24002403702A75C7AA75C75543F901801F75E7
:105C3400C7AA75C75543F902801475C7AA75C75515
:105C440043F904800975C7AA75C75543F907EE756A
:0C5C5400C7AA75C755F5FAA20592AF2249
:1068BD0075910175C7AA75C755E4F5F9A20592AF93
:0168CD0022A8
:07698600E4F59143D18022EA
:07698D00E4F59153D17F22D4
:10592C00EF14600B04700EE4F591538EBF8006E407
:10593C00F591438E40759102ED24FE602024FE60AB
:10594C002324FC602624F8602924F0602C24E060D9
:10595C002F24C06032247F7034539DF822539DF85D
:10596C00439D0222539DF8439D0222539DF8439D73
:10597C000322539DF8439D0422539DF8439D052219
:0E598C00539DF8439D0622539DF8439D07222C
:10343C009006D1EDF0C091EF24FE70030234DC1441
:10344C00700302355D240260030235D19006D1E091
:10345C0024FE602824FE603024FC603824F8604090
:10346C0024F0604824E0605024C06058247F60033E
:10347C000235D1759102539DF80235D175910253E5
:10348C009DF8439D010235D1759102539DF8439DE2
:10349C00020235D1759102539DF8439D030235D13B
:1034AC00759102539DF8439D040235D175910253D9
:1034BC009DF8439D050235D1759102539DF8439DAE
:1034CC00060235D1759102439D070235D10235D1E3
:1034DC009006D1E024FE602824FE603024FC603885
:1034EC0024F8604024F0604824E0605024C0605709
:1034FC00247F60030235D175910253C5F80235D192
:10350C0075910253C5F843C5010235D1759102532B
:10351C00C5F843C5020235D175910253C5F843C5B0
:10352C00030235D175910253C5F843C5040235D158
:10353C0075910253C5F843C5050235D175910253F7
:10354C00C5F843C506807E75910243C50780768019
:10355C00749006D1E024FE602424FE602B24FC60D1
:10356C003224F8603924F0604024E0604724C060C5
:10357C004E247F705075910253D5F8804875910296
:10358C0053D5F843D501803D75910253D5F843D5F9
:10359C0002803275910253D5F843D503802775917B
:1035AC000253D5F843D504801C75910253D5F843CA
:1035BC00D505801175910253D5F843D50680067553
:0835CC00910243D507D09122C2
:1046F3009006D2EDF0C091759102EF24FE605F1435
:1047030070030247B2240260030248039006D2E01A
:104713001460240470409006D5E0FCA3E0FDAF03D1
:10472300AE0212061E7C007D64120630AC06AD0795
:10473300ECF58A8D9A801F9006D5E0FCA3E0FDAFCF
:1047430003AE0212061E7C007D64120630AC06AD79
:1047530007ECF58B8D9BEAF5868B9902480390064F
:10476300D2E01460240470409006D5E0FCA3E0FD81
:10477300AF03AE0212061E7C007D64120630AC0647
:10478300AD07ECF5BA8DC2801F9006D5E0FCA3E01F
:10479300FDAF03AE0212061E7C007D64120630AC30
:1047A30006AD07ECF5BB8DC3EAF5B98BC18051901B
:1047B30006D2E01460240470409006D5E0FCA3E028
:1047C300FDAF03AE0212061E7C007D64120630AC00
:1047D30006AD07ECF5CA8DD2801F9006D5E0FCA389
:1047E300E0FDAF03AE0212061E7C007D64120630AC
:1047F300AC06AD07ECF5CB8DD3EAF5C9AF038FD18A
:03480300D091222F
:0B3BEF0090072DEEF0A3EFF0A3EDF027
:103BFA00E4A3F090072DE0FEA3E07807CEC313CE2E
:103C0A0013D8F97807C333CE33CED8F9FF900731EA
:103C1A00EEF0A3EFF0E4900730F0900730E0FFC336
:103C2A009480748094805029900732E02FFF900787
:103C3A0031E03400FE1200037E00900730E02419C0
:103C4A00F582E43403F583EFF0900730E004F08066
:103C5A00C990072FE0FF7C0090072EE0547F2419BB
:103C6A00F582EC3403F583EFF0900731E0FEA3E030
:103C7A00F5A6EEF5A775AEFFE4F591A2AF9205C2DF
:103C8A00AF75C7AA75C755439F01A20592AFF591B3
:103C9A00A2AF9205C2AF75C7AA75C75543A501A2BF
:103CAA000592AF75AF22F591A2AF9205C2AF75C763
:103CBA00AA75C75543A401A20592AFF591A2AF9286
:103CCA0005C2AF75C7AA75C755439F01A20592AF32
:103CDA00F591A2AF9205C2AF75C7AA75C75543A59C
:103CEA0001A20592AF75AF21900730F0900730E03E
:103CFA00FDC39480748094805038A3E0FEA3E0FC56
:103D0A00ED2CF5A6EEF5A774192DF582E43403F52A
:103D1A0083E0F5AEE4F591A2AF9205C2AF75C7AAEA
:103D2A0075C75543A401A20592AF900730E004F08D
:103D3A0080BAE4F591A2AF9205C2AF75C7AA75C75A
:103D4A005553A5FEA20592AFF591A2AF9205C2AF57
:0D3D5A0075C7AA75C755539FFEA20592AF0D
:013D67002239
:104D6700900725EEF0A3EFF0A3EBF0A3EAF0A3E999
:014D7700F04B
:104D7800900725E0FCA3E0FDAE047807CEC313CE70
:104D880013D8F9FB90072AE0FEA3E02DFFEC3EFEC6
:104D9800EF7807CEC313CE13D8F990072CF09007FD
:104DA8002CE06B6056900725E0FEA3E0FFA3E0FB34
:104DB800A3E0FAA3E0F99005DA7480F0122B88AD2D
:104DC80007ED900726E02FF0900725E03400F0ED7E
:104DD800900728E48FF0120685EDC390072BE09F1B
:104DE800F090072AE09400F0900725E0FEA3E07811
:104DF80007CEC313CE13D8F9FB80A390072AE0FC93
:104E0800A3E0FD4C6019900725E0FEA3E0FFA3E0B6
:0F4E1800FBA3E0FAA3E0F99005DAEDF0122B8886
:014E27002268
:105ADA009006D6EEF0A3EFF0A3EBF0A3EAF0A3E969
:015AEA00F0CB
:105AEB00E49006DDF0A3F09006DBE0FEA3E0FFA35D
:105AFB00E0FCA3E0FDC39FEC9E503B9006D7E02D4E
:105B0B00FF9006D6E03C8F82F583E493FF9006D896
:105B1B00E0FBA3E0FAA3E0F99006DDE0A3E0F58259
:105B2B008C83EF1205FC9006DEE004F07006900605
:065B3B00DDE004F080B182
:015B41002241
:102B88009005D5EEF0A3EFF0A3EBF0A3EAF0A3E9EC
:012B9800F04C
:102B9900E4F591A2AF9205C2AF75C7AA75C75543AF
:102BA9009F01A20592AFF591A2AF9205C2AF75C779
:102BB900AA75C75543A501A20592AF9005D5E0FEB8
:102BC900A3E0FF547FFD9005DCF0C374809DFD9068
:102BD90005DBF09005DAE0D39D4006A3E09005DA25
:102BE900F09005DDEEF0A3EFF0E49005DBF0900541
:102BF900DAE0FFA3E0FEC39F501B9005DDE0FCA3D4
:102C0900E02EF582E43CF583E493F470089005DB4B
:102C1900E004F080D99005DBE06F6003022CCF75EA
:102C2900AF219005D5E0FEA3E0F5A6EEF5A7E49067
:102C390005DBF09005DAE0FFA3E0FEC39F50359075
:102C490005D7E0FBA3E0FAA3E0F98E8275830012B1
:102C5900059BF5AEE4F591A2AF9205C2AF75C7AA7F
:102C690075C75543A401A20592AF05A69005DBE0FF
:102C790004F080BFE49005DBF09005DAE0FFA3E003
:102C8900FEC39F502F9005D7E0FBA3E0FAA3E0F91C
:102C99008E8275830012059BFF9005DDE0FCA3E0A1
:102CA9002EF582E43CF583E493B507089005DBE053
:102CB90004F080C59005DAE0FFA3E06F7003022EEF
:102CC9000F8003022E0F9005D5E0FFA3E0548090FA
:102CD90005DDCFF0A3EFF0E49005DBF09005DBE034
:102CE900C39480748094805027E0FF9005DDE0FC58
:102CF900A3E02FF582E43CF583E493FE74DF2FF51E
:102D090082E43405F583EEF09005DBE004F080CC35
:102D1900E49005DBF09005DAE0FFA3E0C39F5031B2
:102D29009005D7E0FBA3E0FAA3E0F99005DBE0FF0B
:102D3900F58275830012059BFE9005DCE02F24DFE8
:102D4900F582E43405F583EEF09005DBE004F080CC
:102D5900C49005D5E0FEA3E05480F5A6EEF5A7756D
:102D6900AF2275AEFFE4F591A2AF9205C2AF75C768
:102D7900AA75C75543A401A20592AF75AF21900565
:102D8900DBF09005DBE0FFC3948074809480502DC4
:102D990074DF2FF582E43405F583E0F5AEE4F591AF
:102DA900A2AF9205C2AF75C7AA75C75543A401A2C0
:102DB9000592AF05A69005DBE004F080C5E4900517
:102DC900DBF09005DBE0FF7E00C394807480948083
:102DD900502BE0FD9005DDE0FAA3E02DF582E43A01
:102DE900F583E493FC74DF2DF582E43405F583E083
:102DF900FDECB505089005DBE004F080C5EF6480C3
:102E09004E6003022D5AE4F591A2AF9205C2AF7547
:102E1900C7AA75C755539FFEA20592AF9005DAE080
:012E2900FFA9
:012E2A002285
:106055009006D1EFF0A3EDF0A3EBF0759103126973
:1060650094E4FF12622C9006D1E014600B04700ECC
:1060750075910353F9BF800675910343F94053F9B0
:10608500C09006D4E042F953F9F3A3E042F9900633
:0B609500D3E0F5F19006D2E0F5FF2209
:10003E00759103EF54C042FFEF24C0602C24C060C2
:10004E002814600714600924417021AF058FFD222A
:10005E0043FF80759103A2AF9205C2AF75C7AA7513
:0D006E00C75543F402A20592AFE4F5FD2250
:10668F00759103EF24FE600B04700E75910353FA9E
:10669F00EF800675910343FA1053FAF8ED42FA2290
:0F68DF00759103ED42FEEF33333354F842FE223E
:10658700759103EF25E025E04D4EFE75C7AA75C747
:1065970055F5F4EBFE75C7AA75C7558EF5EAFE7576
:0A65A700C7AA75C7558EE943F90134
:0165B10022C7
:10622C00EF60047E0F8002E4FE759103E4FFEFFD46
:10623C007C00C39419748094805016ED6410600E29
:10624C00ED640F6009ED640560048FFB8EFC0F801C
:0B625C00DD75FB1F8EFC75FB1E8EFC29
:016267002214
:1066AF00EF601324FD600F1460042403700E7591C6
:1066BF000343FA08800675910353FAF7E4F5912224
:1065DB00759103AE058EFBEB600EA8077401088066
:1065EB0002C333D8FC42FC22A8077401088002C303
:0765FB0033D8FCF452FC222E
:0A69390075910343F980E4F5912203
:0769940075910353F97F2206
:105C6000E4F591A2AF9205C2AF75C7AA75C75543B7
:105C70009720A20592AFE596542060FAE4F591A230
:105C8000AF9205C2AF75C7AA75C7555396FBA2055B
:105C900092AFF591A2AF9205C2AF75C7AA75C7556D
:105CA0005396FDA20592AFA2AF9205C2AF75C7AAE7
:0C5CB00075C755759734A20592AF00220D
:10439700EF14604C14606C14700302442B14700308
:1043A70002446C240460030244B67F02124EE77F86
:1043B70002125F17E4FF124EE7E4FF125F17E5975B
:1043C700540164017003125C60E4F591A2AF920599
:1043D700C2AF75C7AA75C7555397DFA20592AF221B
:1043E7007F02124EE77F02125F177F01124EE77FAF
:1043F70001125F17E5975401640160030244B61286
:104407005C60227F02124EE77F02125F17E4F5918C
:10441700A2AF9205C2AF75C7AA75C75553977FA2BA
:104427000592AF227F03124EE77F03125F17E597CE
:10443700540164017003125C60E4F591A2AF920528
:10444700C2AF75C7AA75C7555397DFA20592AFF5D7
:1044570091A2AF9205C2AF75C7AA75C75553977F8B
:10446700A20592AF227F02124EE77F02125F177FEB
:1044770004124EE77F04125F17E597540164017039
:1044870003125C60E4F591A2AF9205C2AF75C7AAAB
:1044970075C7555397DFA20592AFF591A2AF920565
:1044A700C2AF75C7AA75C75553977FA20592AF22AA
:104EE700EF146037146055146073147003024F8514
:104EF70024046003024FA3E4F591A2AF9205C2AF69
:104F070075C7AA75C755439780A20592AFE5964422
:104F17007F647F6003024FA380F322E4F591A2AF81
:104F27009205C2AF75C7AA75C755439740A20592A8
:104F3700AFE59644BF64BF706380F622E4F591A2A3
:104F4700AF9205C2AF75C7AA75C755439720A2058B
:104F570092AFE59644DF64DF704280F622E4F59174
:104F6700A2AF9205C2AF75C7AA75C755439710A2DE
:104F77000592AFE59644EF64EF702180F622E4F5E1
:104F870091A2AF9205C2AF75C7AA75C755439708D7
:0D4F9700A20592AFE59644F764F760F8229A
:10556500EF14602414603814604C146060240470D7
:1055750072E4F591A2AF9205C2AF75C7AA75C7557A
:1055850053977FA20592AF22E4F591A2AF9205C28F
:10559500AF75C7AA75C7555397BFA20592AF22E449
:1055A500F591A2AF9205C2AF75C7AA75C7555397B6
:1055B500DFA20592AF22E4F591A2AF9205C2AF75C5
:1055C500C7AA75C7555397EFA20592AF22E4F59187
:1055D500A2AF9205C2AF75C7AA75C7555397F7A273
:0455E5000592AF225A
:105F1700A2AF9205C2AFEF14601814602014602876
:105F27001460302404703575C7AA75C755439606A3
:105F3700802A75C7AA75C755439607801F75C7AAD4
:105F470075C7555396F8801475C7AA75C7554396F4
:105F570004800975C7AA75C755439602A20592AF73
:015F67002217
:10680000E4F591A2AF9205C2AF75C7AA75C755430B
:076810009F80A20592AF2258
:030000000253AEFA
:1053AE00787FE4F6D8FD9000007FFF7E10E4F0A336
:0A53BE00DFFCDEFA758120025403C3
:10195C0060A204C50F6E0F320EF50EB60E770E3662
:10196C000DF40DB20D6F0D2B0CE60CA10C5C0C16CE
:10197C000BD00B8A0B440AFE0AB90A740A2F09EB26
:10198C0009A70963092108E0089F0860082107E3FB
:10199C0007A7076B073106F806C0068A065406210E
:1019AC0005EE05BD058D055E0530050404D904B0B2
:1019BC0004870460043A041603F203D003AD038ECB
:1019CC00036F03500334031702FC02E102C802AF99
:1019DC0002980281026B02570242022E021B02097C
:1019EC0001F701E601D601C601B601A8019A018CE6
:1019FC00017F017201654204C300004104BE004135
:0F1A0C0004BF004104C0004104C1004104C200F6
:10584B0075910253F20F43F21075910143B5025358
:10585B00B6FD759101E4F5CE43CE10F59153A1F051
:10586B0043A10443E1017D047F01FE12233C7D072C
:10587B007F031267827B027D017F01124917E4F5DA
:10588B009153A17F7B017D027F05124AEA7591013D
:10589B0053B5EF53B6EF7B017D047F04124AEA53F5
:1058AB00D8FBE4F59153B1FD90059B04F0E4900512
:0358BB00D1F02207
:10599A00E4F59153A17FF59143A140E5A130E7FBDE
:1059AA00AFC3EF75F010A4FFAEF0ADC2E5F0EF4D56
:1059BA00FFEE3395E0FDFC9007421207EF90074295
:1059CA00E0A3E0A3E0FEA3E0FF900595E025E02434
:1059DA0071F582E43405F583EEF0A3EFF0900595B6
:1059EA00E004F0900742E0FCA3E0FDA3E0FEA3E0A0
:0C59FA00FFE4F59153A17FF59153A1BF8C
:015A0600227D
:10480600EF6404600302489175910253F20F43F27C
:104816001075910143B50253B6FD759101F5CE436E
:10482600CE10F59153A1F043A10443E101F5915354
:10483600A17FF59143A140E5A130E7FBAFC3EF753A
:10484600F010A4FFAEF0ADC2E5F0EF4DFFEE3395EC
:10485600E0FDFC9006D31207EF9006D3E0A3E0A399
:10486600E0FEA3E0FF900595E025E02471F582E4E3
:104876003405F583EEF0A3EFF0900595E004F0E43F
:10488600F59153A17FF59153A1BF22EF6003024931
:104896001675910253F40F43F41075910143B52038
:1048A60053B6DF759101F5CE43CE01F59153A1F0D4
:1048B60043E101F59153A17FF59143A140E5A13074
:1048C600E7FBAFC3EF75F010A4FFAEF0ADC2E5F0A5
:1048D600EF4DFFEE3395E0FDFC9006D31207EF9007
:1048E60006D3E0A3E0A3E0FEA3E0FF9005CCE0251D
:1048F600E024A8F582E43405F583EEF0A3EFF0900A
:1049060005CCE004F0E4F59153A17FF59153A1BFE6
:01491600227E
:1014B200EF700302176824FC600302194D7F0412C7
:1014C2004806900595E0C3941274809480500302FC
:1014D200194DE4F0900571E0FFA3E0900567CFF0AD
:1014E200A3EFF0900571E0FFA3E0900569CFF0A3B0
:1014F200EFF0E4A3F0A3F09006D104F09006D1E05F
:10150200FFC39412748094805051EF25E02471F54A
:1015120082E43405F583E0FEA3E0FFC390056AE0B0
:101522009F900569E09E5005EEF0A3EFF09006D182
:10153200E025E02471F582E43405F583E0FEA3E0C2
:10154200FFD3900568E09F900567E09E4005EEF0AE
:10155200A3EFF09006D1E004F080A1E49006D1F070
:101562009006D1E0FFC39412748094805025EF2539
:10157200E02471F582E43405F583E0FEA3E0FF90F8
:10158200056CE02FF090056BE03EF09006D1E00490
:10159200F080CD900567E0FEA3E0FFC390056CE00C
:1015A2009FFF90056BE09EFE900569E0FCA3E0FDC5
:1015B200C3EF9DFFEE9CA3F0A3EFF090056BE0C498
:1015C200F854F0C868FEA3E0C4540F48FF90056BBE
:1015D200EEF0A3EFF0A3EEF0A3EFF0A3E0FCA3E0A4
:1015E200FDE41203D27BCD7ACC79CC783D1201AEE8
:1015F200C004C005C006C00790056BE0FCA3E0FD77
:10160200E41203D27466FBFAF9783F1201AED003FA
:10161200D002D001D0001200BD12040B90056DEE75
:10162200F0A3EFF0A3EEF0A3EFF0E49006D1F09078
:1016320006D1E0FFC3945074809480400302194D98
:10164200EF25E024C5F582E43404F583E0FEA3E04F
:10165200FF90056DE0FCA3E0FDD39FEC9E400302EA
:10166200175F9006D1E0FF25E024C7F582E4340439
:10167200F583E0FAA3E0FBD3ED9BEC9A500302174B
:101682005FEF94147480948050649006D1E0F92541
:10169200E024C5F582E43404F583E0FAA3E0FBC359
:1016A2009DFFEA9CFE7C007D0A12061EE925E024CD
:1016B200C7F582E43404F583E0FCA3E0FDC3EB9DAF
:1016C200FDEA9CFC120630AA06AB079006D1E0FFA9
:1016D200C374139FFFE49400FE7C007D0A12061E71
:1016E200EF2BFFEE3A900596F0A3EFF0806F900695
:1016F200D1E0F925E024C5F582E43404F583E0FA6B
:10170200A3E0FB90056DE0FEA3E0FFC3EB9FFFEAC1
:101712009EFE7C007D0A12061EE925E024C7F582A2
:10172200E43404F583E0FCA3E0FDC3EB9DFDEA9CF9
:10173200FC120630AA06AB079006D1E024ECFFE4C7
:1017420034FFFE7C007D0A12061EEF2BFFEE3A905C
:101752000596F0A3EFF090059AE9F0F0229006D1F9
:06176200E004F002163164
:10176800E4FF1248069005CCE0C39412748094807C
:10177800500302194DE4F09005A8E0FFA3E090059E
:101788009CCFF0A3EFF09005A8E0FFA3E090059EA2
:10179800CFF0A3EFF0A31207FB000000009006D2E1
:1017A8007401F09006D2E0FFC394127480948050C4
:1017B80051EF25E024A8F582E43405F583E0FEA383
:1017C800E0FFC390059FE09F90059EE09E5005EEC8
:1017D800F0A3EFF09006D2E025E024A8F582E434E7
:1017E80005F583E0FEA3E0FFD390059DE09F9005FB
:1017F8009CE09E4005EEF0A3EFF09006D2E004F0E6
:1018080080A1E49006D2F09006D2E0C394127480CE
:101818009480503F9005A0E0F8A3E0F9A3E0FAA374
:10182800E0FB9006D2E025E024A8F582E43405F533
:1018380083E0FEA3E0FFE4FCFDEB2FFFEA3EFEEDB4
:1018480039FDEC38FC9005A01207EF9006D2E004B1
:10185800F080B490059CE0FEA3E0FFFBAA06E490AC
:1018680005A0E0FCA3E0FDA3E0FEA3E0C39BFFEE20
:101878009AFEED9400FDEC9400FCC006C0079005AC
:101888009EE0FEA3E0FFFBAA06E4D007D006C3EF64
:101898009BFFEE9AFEED9400FDEC9400FCA312076A
:1018A800EF9005A0E0FCA3E0FDA3E0FEA3E0FF7835
:1018B800041207DC9005A01207EF9005A0E0FCA336
:1018C800E0FDA3E0FEA3E0FFE41203CD7466FBFA9B
:1018D800F9783F1201AEC004C005C006C0079005E4
:1018E800A6E0FCA3E0FDE41203D27BCD7ACC79CC50
:1018F800783D1201AED003D002D001D0001200BD55
:1019080012040B9005A01207EF9005A0E0A3E0A336
:10191800E0FFA3E09005A6CFF0A3EFF0E4FF7E146C
:10192800FDFC9005A0E0F8A3E0F9A3E0FAA3E0FB32
:101938001206B1E47BFF7A0FF9F812073C9005A470
:05194800EEF0A3EFF03A
:01194D002277
:10087E0020A403020A2C7B017D167F011265DB7B0F
:10088E00017D177F031265DBD39005A5E0940490DC
:10089E0005A4E09410402C9005D47401F0FB7D1655
:1008AE00E4FF1265DB7B017D17E4FF1265DB7B0144
:1008BE007D177F011265DB7B017D177F021265DBE1
:1008CE000209CFC39005A5E094049005A4E094100E
:1008DE0050069005D4E0601DC39005A5E0943C90B1
:1008EE0005A4E0940F40030209CF9005D4E0640103
:1008FE0060030209CF9004C4E004F070069004C3B4
:10090E00E004F09004C3E07004A3E0640170267B61
:10091E00017D16FF1265DB7B017D17E4FF1265DB9F
:10092E00E4FB7D177F021265DBE4FB7D177F01126E
:10093E0065DB0209CF9004C3E07004A3E06402708B
:10094E00257B017D16FF1265DB7B017D17E4FF120F
:10095E0065DB7B017D177F011265DBE4FB7D177F75
:10096E00021265DB805B9004C3E07004A3E06403B5
:10097E0070257B017D16FF1265DB7B017D17E4FF81
:10098E001265DB7B017D177F011265DB7B017D1715
:10099E007F021265DB802A7B017D16E4FF1265DB88
:1009AE00E4FB7D177F021265DBE4FB7D177F0112EE
:1009BE0065DBE4FB7D17FF1265DBE49004C3F0A357
:1009CE00F09005A4E0FEA3E0FFC39461EE940E50F8
:1009DE0006E49005D3F022C3EF949FEE940E5007D9
:1009EE009005D37414F022C3EF94F0EE940E5007DA
:1009FE009005D37428F022C3EF948DEE940F500718
:100A0E009005D3743CF022C3EF9436EE9410500749
:100A1E009005D37450F0229005D37464F02230A464
:040A2E0003020F2F81
:100A3200E49005D4F0FB7D167F011265DBD39005AF
:100A4200A5E0943C9005A4E0940F5003020B17908C
:100A520004BEE070349005D37464F07B017D16E42B
:100A6200FF1265DB7B017D177F021265DB7B017D57
:100A7200177F031265DB7B017D177F011265DB7B2C
:100A8200017D17E4FF1265DB229004BEE064017071
:100A920050D39005A5E094509005A4E0940F4041F6
:100AA2009005D37464F07B017D16E4FF1265DB7B55
:100AB200017D177F021265DB7B017D177F031265C3
:100AC200DB7B017D177F011265DB7B017D17E4FF74
:100AD2001265DBE49004BEF0A3F0A3F0A3F0A3F050
:100AE200229005D37450F07B017D16E4FF1265DB82
:100AF200E4FB7D177F021265DB7B017D177F03120A
:100B020065DB7B017D177F011265DB7B017D17E4CD
:100B1200FF1265DB22D39005A5E094799005A4E04D
:100B2200940E5003020BF19004BE7401F0A3E07026
:100B3200349005D37450F07B017D16E4FF1265DB1F
:100B4200E4FB7D177F021265DB7B017D177F0312B9
:100B520065DB7B017D177F011265DB7B017D17E47D
:100B6200FF1265DB229004BFE06401704ED3900552
:100B7200A5E0948D9005A4E0940E403F9005D374B7
:100B820050F07B017D16E4FF1265DBE4FB7D177FED
:100B9200021265DB7B017D177F031265DB7B017D22
:100BA200177F011265DB7B017D17E4FF1265DBE431
:100BB2009004BFF0A3F0A3F0A3F0229005D3743CFD
:100BC200F07B017D16E4FF1265DBE4FB7D177F02FB
:100BD2001265DB7B017D177F031265DBE4FB7D176A
:100BE2007F011265DB7B017D17E4FF1265DB22D3F7
:100BF2009005A5E094109005A4E0940E5003020C19
:100C0200C89004BF7401F0A3E070349005D3743C23
:100C1200F07B017D16E4FF1265DBE4FB7D177F02AA
:100C22001265DB7B017D177F031265DBE4FB7D1719
:100C32007F011265DB7B017D17E4FF1265DB2290E9
:100C420004C0E06401704CD39005A5E0941A9005AD
:100C5200A4E0940E403D9005D3743CF07B017D16D8
:100C6200E4FF1265DBE4FB7D177F021265DB7B018B
:100C72007D177F031265DBE4FB7D177F011265DBC5
:100C82007B017D17E4FF1265DBE49004C0F0A3F062
:100C9200A3F0229005D37428F07B017D16E4FF12A5
:100CA20065DBE4FB7D177F021265DB7B017D177F2D
:100CB200031265DBE4FB7D177F011265DBE4FB7D3C
:100CC20017FF1265DB22D39005A5E094C89005A416
:100CD200E0940D5003020D9A9004C07401F0A3E059
:100CE20070339005D37428F07B017D16E4FF126502
:100CF200DBE4FB7D177F021265DB7B017D177F033F
:100D02001265DBE4FB7D177F011265DBE4FB7D17D7
:100D1200FF1265DB229004C1E064017049D39005A3
:100D2200A5E094DE9005A4E0940D403A9005D374BA
:100D320028F07B017D16E4FF1265DBE4FB7D177F63
:100D4200021265DB7B017D177F031265DBE4FB7D0D
:100D5200177F011265DBE4FB7D17FF1265DBE49070
:100D620004C1F0A3F0229005D37414F0E4FB7D16C5
:100D7200FF1265DBE4FB7D177F021265DB7B017DE1
:100D8200177F031265DBE4FB7D177F011265DBE44D
:100D9200FB7D17FF1265DB22D39005A5E09430900E
:100DA20005A4E0940C5003020EB19004C17401F04A
:100DB200A3E070329005D37414F0E4FB7D16FF12A9
:100DC20065DBE4FB7D177F021265DB7B017D177F0C
:100DD200031265DBE4FB7D177F011265DBE4FB7D1B
:100DE20017FF1265DB229004C2E064017046D390C3
:100DF20005A5E094449005A4E0940C40379005D3F7
:100E02007414F0E4FB7D16FF1265DBE4FB7D177FB3
:100E1200021265DB7B017D177F031265DBE4FB7D3C
:100E2200177F011265DBE4FB7D17FF1265DBE4909F
:100E320004C2F0229004C4E004F070069004C3E0FF
:100E420004F0E49005D3F0FB7D16FF1265DBE4FBB2
:100E52007D177F021265DBE4FB7D177F011265DBE4
:100E6200E4FB7D17FF1265DB9004C3E07004A3E08E
:100E7200640170137B017D167F011265DB7B017DAE
:100E8200177F031265DB229004C3E07004A3E064C1
:100E9200026003020F2FFB7D167F011265DBE4FB6C
:100EA2007D177F031265DBE49004C3F0A3F0229068
:100EB20004C27401F09004C4E004F070069004C30C
:100EC200E004F0E49005D3F0FB7D16FF1265DBE44D
:100ED200FB7D177F021265DBE4FB7D177F01126544
:100EE200DBE4FB7D17FF1265DB9004C3E07004A313
:100EF200E0640170147B017D167F011265DB7B01CA
:100F02007D177F031265DB80249004C3E07004A385
:100F1200E064027018FB7D167F011265DBE4FB7D45
:0D0F2200177F031265DBE49004C3F0A3F019
:010F2F00229F
:10664B0090059BE064017012900596E0FFA3E0A318
:10665B00CFF0A3EFF0E490059BF0900596E0FEA33E
:03666B00E0FF222B
:09694300900598E0FEA3E0FF229C
:051A1B0042065F00001F
:0C6916007B017D027F02124AEAD2A1221E
:105E710090066B7411F0A37401F0A3F090066CE02E
:105E8100FF90066BE02F04F40490066EF090066B11
:105E9100E0900661F090066CE0900662F090066D6D
:105EA100E0900663F090066EE0900664F090069331
:105EB100E070107B017A06796190066CE02403FDA5
:045EC10012617022D8
:105DC40090066B7411F0A37401F0A3741EF0900696
:105DD4006CE0FF90066BE02F241EF40490066EF036
:105DE40090066BE0900661F090066CE0900662F01D
:105DF40090066DE0900663F090066EE0900664F005
:105E0400900693E070107B017A06796190066CE04D
:075E14002403FD126170225E
:03007B00025268C6
:10526800C0E0C0F0C083C082C0D075D000C000C00C
:1052780001C002C003C004C005C006C007C0913009
:10528800F86C900695E59AF0900693E070259006E4
:1052980095E064167056FE7F0FFD7B017A06796FE4
:1052A800120852900695E090066FF09006937401EC
:1052B800F08039900693E064017031A3E004F0A314
:1052C800E0FF900694E0FE246FF582E43406F5834F
:1052D800EFF0900670E02402FDE433FCEE7E00B5AA
:1052E800050AEEB504069006937402F0C2F8D09150
:1052F800D007D006D005D004D003D002D001D0000A
:0B530800D0D0D082D083D0F0D0E032B3
:10544800900693E06402705DA3E0FF126602900686
:1054580094E0246FF582E43406F583E06F703878C1
:105468007E7C067D017B017A06796FFE7F0F12052F
:105478005CE4900693F0900681E0FEA3E07C0024B3
:1054880000FFEC3E900691F0A3EFF0E4900694F054
:1054980090065FF0A3F022E4900693F0A3F0900644
:1054A8005FF0A3F022900693E0602A900660E00483
:1054B800F0700690065FE004F0D3900660E094E890
:1054C80090065FE09403400DE4900693F0A3F090FB
:0554D800065FF0A3F0E7
:0154DD0022AC
:02660200A907E6
:10660400E4FFFEFDFCEDC3995013746F2DF582E495
:106614003406F583E02FFFE43EFE0D80E8EFF4043A
:02662400FCFF79
:016626002251
:0544B7009006DFEFF0AC
:1044BC007E007011900691E0FDA3E09006E3CDF034
:1044CC00A3EDF0804AEF64014E701F7B017D097FE4
:1044DC00021265DB7B017D097F031265DB1268FC30
:1044EC009006E3EEF0A3EFF080259006DFE0640287
:1044FC00701D7B017D097F011265DB7B017D097FCE
:10450C00031265DB1269099006E3EEF0A3EFF0905D
:10451C0006E3E0FAA3E0FB7C037DE8FFAE021206A3
:10452C00309006E2EFF07C037DE8AF03AE0212069A
:10453C00307E007F64CFCDCFCECCCE12063090062D
:10454C00E1EFF09006E3E0A3E07C007D64FFAE02B7
:10455C001206307E007F0ACFCDCFCECCCE120630E5
:10456C009006E0EFF07C007D0AAF03AE021206303D
:10457C00AF05E4FB7F04123D68C39006E4E0940AA7
:10458C009006E3E09400400C9006E0E0FDE4FB7F35
:10459C0003123D68C39006E4E094649006E3E09453
:1045AC0000400C9006E1E0FDE4FB7F02123D68C385
:1045BC009006E4E094E89006E3E09403400C900647
:0A45CC00E2E0FDE4FB7F01123D6810
:0145D60022C2
:09694C00900691E0FEA3E0FF2299
:105CBC009006D6EBF0A3EAF0A3E9F0A3ECF0A3ED89
:015CCC00F0E7
:105CCD00E4FF7EFF9006D974FFF5F012069B45F0B8
:105CDD0060339006D6E0FBA3E475F00112069BA994
:105CED00F0FA1205826EFEE4FFEFC39408748094FF
:105CFD008050D1EE30E70725E06431FE8004EE25BB
:075D0D00E0FE0F80E4AF0689
:015D1400226C
:103FF800E4FDEF7807CEC313CE13D8F97807C3339F
:10400800CE33CED8F9FF9006DAEEF0A3EFF0E4FD58
:104018009006D9E0FFEDC39F502DEDC39F501912B4
:104028000582FF74192DF582E43403F583EFF074EB
:104038000129F9E43AFA800C74192DF582E4340365
:10404800F583E4F00D80C99006DAE0FEA3E0F5A65A
:10405800EEF5A775AEFFE4F591A2AF9205C2AF7574
:10406800C7AA75C755439F01A20592AFF591A2AFA4
:104078009205C2AF75C7AA75C75543A501A2059297
:10408800AF75AF22F591A2AF9205C2AF75C7AA75F9
:10409800C75543A401A20592AFF591A2AF9205C2FC
:1040A800AF75C7AA75C755439F01A20592AFF59191
:1040B800A2AF9205C2AF75C7AA75C75543A501A29D
:1040C8000592AF75AF21FD9006D9E0FFEDC39F5073
:1040D80031A3E0FEA3E02DF5A6EEF5A774192DF5A2
:1040E80082E43403F583E0F5AEE4F591A2AF9205DE
:1040F800C2AF75C7AA75C75543A401A20592AF0DF3
:1041080080C5E4F591A2AF9205C2AF75C7AA75C77D
:104118005553A5FEA20592AFF591A2AF9205C2AF85
:0D41280075C7AA75C755539FFEA20592AF3B
:014135002267
:0B3A72009006D1EDF0EF6003023BEE88
:103A7D009006D1E06003023B05900200E0FF7E005E
:103A8D00700604F0A3F0800CEF64014E70069002F6
:103A9D0000F0A3F07B017A0279017D057C00125CB8
:103AAD00BC900206EFF0C2AF7B017A02790190065D
:103ABD00D97406F07F807EFF123FF87A0279079065
:103ACD0006DBE4F0A37406F07F807EFF125ADA7BEA
:103ADD00017A0279077D057C00125CBC90020CE036
:103AED006F60137B017A0279019006D97406F07F1D
:103AFD00807EFF123FF8D2AF9006D1E064016003E3
:103B0D00023BEE12694CEEFFC0071269E4740D2FF3
:103B1D00F582E43402F583D0E0F012694CC007124F
:103B2D0069E4740E2FF582E43402F583D0E0F012CF
:103B3D0069EA900289EFF01269E490028AEFF07B56
:103B4D00017A02790D7D7E125EC59006D2EEF0A34C
:103B5D00EFF09006D2E0FCA3E0FDEC90028BF0A319
:103B6D00EDF0C2AF900200E075F080A42480FFE577
:103B7D00F034FEFE7B017A02790D9006D97480F047
:103B8D00123FF8900200E075F080A42480FFE5F06C
:103B9D0034FEFE7A02798D9006DBE4F0A37480F09A
:103BAD00125ADA7B017A02798D7D7E125EC5900301
:103BBD0017EEF0A3EFF090030CE06F7001EE601FB5
:103BCD00900200E075F080A42480FFE5F034FEFE45
:103BDD007B017A02790D9006D97480F0123FF8D2EC
:013BED00AF28
:013BEE0022B4
:10261600C2AF7B017A0279079006DBE4F0A3740669
:10262600F07F807EFF125ADA7B017A0279077D05F8
:102636007C00125CBC90020CE06F607B7B017A022E
:1026460079079006DBE4F0A37406F07F807EFF1224
:102656005ADA7B017A0279077D057C00125CBC9010
:10266600020CE06F6017E4900201F0A3F0A3F0A360
:10267600F0A3F0900201E0900200F0807290020751
:10268600E0900201F0900208E0900202F090020948
:10269600E0900203F090020AE0900204F090020B30
:1026A600E0900205F090020CE0900206F090020124
:1026B600E0900200F08038900207E0900201F0906E
:1026C6000208E0900202F0900209E0900203F09006
:1026D600020AE0900204F090020BE0900205F090EE
:1026E600020CE0900206F0900201E0900200F090E9
:1026F6000200E075F080A42480FFE5F034FEFE7B46
:10270600017A02798D9006DBE4F0A37480F0125A08
:10271600DA7B017A02798D7D7E125EC5900317EE13
:10272600F0A3EFF090030BE0FF900317E4F0A3EFA4
:10273600F0E0F8E4F0E8900317F090030CE0FF9067
:102746000318E02FF0900317E03400F07B017A02C3
:10275600798D7D7E125EC5900317E06E7003A3E04F
:102766006F7003022867900200E075F080A4248051
:10277600FFE5F034FEFE7B017A02798D9006DBE4FC
:10278600F0A37480F0125ADA90030BE0FF9003175F
:10279600E4F0A3EFF0E0F8E4F0E8900317F090031C
:1027A6000CE0FF900318E02FF0900317E03400F0E0
:1027B6007B017A02798D7D7E125EC5900317E06EED
:1027C6007003A3E06F602AE49006D5F09006D5E08A
:1027D600FFC394807480948040030228D5740D2F23
:1027E600F582E43402F583E4F09006D5E004F08047
:1027F600DBE49006D5F09006D5E0C394807480940F
:10280600805021E0FF248DF582E43402F583E0FE5A
:10281600740D2FF582E43402F583EEF09006D5E0D0
:1028260004F080D2900289E0FF9006D1F090028AEF
:10283600E09006D2F0E0FE240DF582E43402F58342
:10284600E09006D3F0740E2EF582E43402F583E0B0
:102856009006D4F01269F09006D2E0FF1269F68075
:102866006EE49006D5F09006D5E0C394807480940B
:10287600805021E0FF248DF582E43402F583E0FEEA
:10288600740D2FF582E43402F583EEF09006D5E060
:1028960004F080D2900289E0FF9006D1F090028A7F
:1028A600E09006D2F0E0FE240DF582E43402F583D2
:1028B600E09006D3F0740E2EF582E43402F583E040
:1028C6009006D4F01269F09006D2E0FF1269F6D2B3
:0128D600AF52
:0128D70022DE
:10575C00E4FDEDC3946074809480505A740D2DF563
:10576C0082E43402F583E0FF9006D3E4F0A3EFF07B
:10577C00E0F8E4F0E89006D3F0740E2DF582E434F2
:10578C0002F583E0FF9006D4E02FF09006D3E034CE
:10579C0000F0E0FEA3E0FFC39006D2E09F9006D19C
:1057AC00E09E500E9006D3E0A3E09006D1EEF0A35D
:1057BC00EFF00D0D809C9006D1E0FEA3E0FFE4FC21
:0757CC00FD90030F1207EF2F
:0157D30022B3
:10376700E49006D2F0A3F0A3F0A3F0A31207FB00A6
:10377700000000900289E060030238499006D1F00A
:1037870090028AE02402FFE433FE9006D1E0C39F53
:10379700EE6480F8748098506AE0FD240DF582E4A9
:1037A7003402F583E0FF9006D4E4F0A3EFF0E0F8ED
:1037B700E4F0E89006D4F0740E2DF582E43402F5B7
:1037C70083E0FF9006D5E02FF09006D4E03400F0B8
:1037D7009006D6E0F8A3E0F9A3E0FAA3E0FB900691
:1037E700D4E0FEA3E0FFE4FCFDEB2FFFEA3EFEED95
:1037F70039FDEC38FCA31207EF9006D1E02402F064
:10380700023787E47F02FEFDFC9006D6E0F8A3E0CE
:10381700F9A3E0FAA3E0FB1206B1C006C0079002C5
:103827008AE02402FFE433FEAB07FA3395E0F9F8A8
:10383700D007D00612073C9006D2EEF0A3EFF002B5
:1038470038E3E49006D1F09006D1E0C39460748029
:1038570094805069E0FD240DF582E43402F583E09D
:10386700FF9006D4E4F0A3EFF0E0F8E4F0E8900668
:10387700D4F0740E2DF582E43402F583E0FF900650
:10388700D5E02FF09006D4E03400F09006D6E0F8AB
:10389700A3E0F9A3E0FAA3E0FB9006D4E0FEA3E0DF
:1038A700FFE4FCFDEB2FFFEA3EFEED39FDEC38FCB3
:1038B700A31207EF9006D1E02402F0808AE47B3060
:1038C700FAF9F89006D6E0FCA3E0FDA3E0FEA3E03A
:1038D700FF12073C9006D2EEF0A3EFF09006D2E07D
:0D38E700FEA3E0FFE4FCFD9003131207EFC9
:0138F40022B1
:0D68FC0090030FE0A3E0A3E0FEA3E0FF2265
:0D690900900313E0A3E0A3E0FEA3E0FF2253
:10655A007591025384F75385F7759102439708752D
:10656A00910153BDBF53BEBF759101439740900639
:0D657A00F37401F0A3F09006F67406F02211
:102055007591029006EDE5A7F0E0F4FF1313135414
:1020650001FFF0E4F591AD07E5B1F0E0F4FEC4132E
:102075005402F0E02FF0E060469006E6E004F0E060
:10208500D3940574809480403B9006EDE0602990E0
:1020950006EAE064017005A304F080069006EA7480
:1020A50001F0E49006EFF09006EDE0A3F0E4900671
:1020B500E6F09006E8F0800CE49006E6F08005E492
:1020C5009006E6F09006EAE06401600302232D9095
:1020D50006E7E004F09006EEE024FE700302220D10
:1020E50004600302232D9006EDE0FF60030221D278
:1020F5009006E7E0D394C874809480400374C9F0D7
:102105009006EFE0640170569006E8E004F0E0D335
:10211500946474809480500302232DA3E0FD7C0019
:10212500640170089006F07402F0801AED64024CA8
:1021350070089006F07403F0800CED64034C700693
:102145009006F07404F0E49006E9F09006E8F0904B
:1021550006EAF09006EFF09006EBF002232D9006CC
:10216500E7E0FD7C00C394C874809480501D900600
:10217500EBE070179006F8E070119006EF04F09010
:1021850006E9F0E49006E7F002232DC3ED94C8ECD0
:102195006480948050259006EBE06401701D9006E4
:1021A500F8E070179006EF04F09006E9E004F0E41B
:1021B5009006E7F09006EBF002232DE49006F8F088
:1021C5009006E7F09006EAF0A3F002232DEF6401F4
:1021D500600302232D9006E7E0D394C874809480B1
:1021E500500302232D9006F07405F0E49006E7F005
:1021F5009006EBF09006E8F09006EFF09006E8F018
:102205009006F804F002232D9006EDE0FF6003022E
:1022150022F59006E7E0D394C87480948040037457
:10222500C9F09006EFE0640670569006E8E004F009
:10223500E0D3946474809480500302232DA3E0FDC1
:102245007C00640170089006F07407F0801AED6454
:10225500024C70089006F07408F0800CED64034C95
:1022650070069006F07409F0E49006E9F09006E82F
:10227500F09006EAF09006EFF09006EBF002232DC1
:102285009006E7E0FD7C00C394C874809480501FDD
:102295009006EBE070199006F8E070139006EF7465
:1022A50006F09006E97401F0E49006E7F08079C342
:1022B500ED94C8EC6480948050259006EBE06401B1
:1022C500701D9006F8E070179006EF7406F0900602
:1022D500E9E004F0E49006E7F09006EBF08049E4CD
:1022E5009006F8F09006E7F09006EAF0A3F0803843
:1022F500EF640270339006E7E0D394C8748094804D
:1023050040269006F8E070209006F0740AF0E490FC
:1023150006E7F09006EBF09006E8F09006EFF090F7
:1023250006E8F09006F804F09006EFE06401700608
:062335009006E8E004F050
:01233B00227F
:1035D4001220559006F0E0640270589006F9E0FF5E
:1035E4007E00700404F08035EF64014E700890068C
:1035F400F97402F08027EF64024E70089006F974A3
:1036040003F08019EF64034E70089006F97404F017
:10361400800BEF64044E70059006F904F0126A0200
:10362400EF640470030237619006F9E0FF1256E27A
:103634000237619006F0E0FF7E006403702D90066F
:10364400F7E0FD7C00700504F0023761ED64014C85
:1036540070099006F77402F0023761ED64024C6061
:10366400030237619006F7F0023761EF64044E708D
:10367400030237619006F0E0FF7E006405701E903F
:1036840006F5E0FD7C00700504F0023761ED64018D
:103694004C60030237619006F5F0023761EF64076E
:1036A4004E701E9006F4E0FF7E00700504F00237B1
:1036B40061EF64014E60030237619006F4F0023753
:1036C400619006F0E0FF7E006408706C9006F6E0FE
:1036D400B4080040030237619036E3F828287302E7
:1036E40036FB02370302370B02371302371B02374C
:1036F4002302372B0237339006F67401F0805E9074
:1037040006F67402F080569006F67403F0804E902C
:1037140006F67404F080469006F67405F0803E9038
:1037240006F67406F080369006F67407F0802EE4F0
:103734009006F6F080278025EF64094E601F9006FE
:10374400F0E0640A70179006F3E0FF7E0070040452
:10375400F0800AEF64014E70049006F3F0E49006E2
:03376400F0F02260
:0669A2009006F3E0FF2265
:0669A8009006F4E0FF225E
:0669AE009006F5E0FF2257
:0669B4009006F6E0FF2250
:0669BA009006F7E0FF2249
:0669C0009006F9E0FF2241
:1042720075910253EB0F43EB5075910253EBF043F0
:10428200EB0575910253EE0F43EE5075910253F711
:104292000F43F75075910253FCF043FC02759102F3
:1042A20053FC0F43FC2075910253E9F043E9027578
:1042B200910253E90F43E92075910253F2F043F260
:1042C2000275910253F5F043F50275910253F50F11
:1042D20043F5207591025394F04394027591025371
:1042E200940F4394207591025395F0439502759172
:1042F2000253950F43952075910253F6F043F6024F
:1043020075910253F60F43F62075910253F7F0436D
:10431200F70275910253EDF043ED0275910253EDF0
:104322000F43ED2075910253EEF043EE02759102B8
:1043320053F10F43F12075910253F1F043F10275ED
:10434200910253FF0F43FF2075910253FFF043FF89
:10435200027591025392F043920275910253920FA9
:104362004392207591025393F04393027D027F01A1
:1043720012668F9006D47420F0E4A3F07B307D01A6
:104382007F01126055E4FD7F4012003E1269397FC1
:054392000112622C2263
:0669C600E4FF12622C2226
:073D68009006E5EBF0A90550
:103D6F00E4FEFDEF14B40B00506B903D8775F0032C
:103D7F00A4C58325F0C58373023DA8023DAE023D65
:103D8F00B4023DBA023DC0023DC6023DCC023DD257
:103D9F00023DD8023DDE023DE27E027D0180367E8D
:103DAF00047D0380307E067D18802A7E087D078083
:103DBF00247E0B7D0A801E7E0D7D0C80187E1E7D5D
:103DCF000E80127E127D11800C7E147D1380067D75
:103DDF000A80027D11759103AF068FFBE9B40A00CB
:103DEF005055903DF8F8282873023E16023E1B02EC
:103DFF003E20023E25023E2A023E2F023E34023E64
:103E0F0039023E3E023E4375FC0F802B75FC068047
:103E1F002675FC0B802175FC0F801C75FC06801726
:103E2F0075FC0D801275FC0D800D75FC07800875F3
:103E3F00FC0F800375FC0F759103AF058FFBE9B481
:103E4F000A005055903E5AF8282873023E78023ED9
:103E5F007D023E82023E87023E8C023E91023E96DA
:103E6F00023E9B023EA0023EA575FC0A802BE4F5A4
:103E7F00FC802675FC0C802175FC04801C75FC06EB
:103E8F00801775FC06801275FC0E800DE4F5FC8022
:103E9F000875FC0E800375FC069006E5E0FF8000B8
:013EAF0022F0
:0E0F30009006D1EEF0A3EFF0A3ECF0A3EDF0ED
:100F3E00E49006DEF0FF12622C1269AEEF7003022F
:100F4E0010271269AEEF640160030210271269D2F6
:100F5E00EF6003020FF69006D1E0FCA3E0FDE41271
:100F6E0003D27B667A6679E6783F1201AEE4FBFA2D
:100F7E0079A0784312035450349006DE7401F09039
:100F8E0006D1E0FCA3E0FDE41203D27B667A66791B
:100F9E00E6783F1201AEE4FBFA79A078C31200BDE9
:100FAE0012040B9006D1EEF0A3EFF0806CE49006E5
:100FBE00DEF09006D1E0FCA3E0FDE41203D27B66E6
:100FCE007A6679E6783F1201AEA804A905AA06ABA7
:100FDE0007E4FFFE7DA07C431200B912040B9006BD
:100FEE00D1EEF0A3EFF08031E49006DEF09006D162
:100FFE00E0FCA3E0FDE41203D27B667A6679E67824
:10100E003F1201AEE4FBFA79A078431200BD120440
:10101E000B9006D1EEF0A3EFF09006D1E0FAA3E02C
:10102E00FB7C037DE8FFAE021206309006D8EFF08F
:10103E007C037DE8AF03AE021206307E007F64CFE4
:10104E00CDCFCECCCE1206309006D7EFF09006D193
:10105E00E0A3E07C007D64FFAE021206307E007FCE
:10106E000ACFCDCFCECCCE1206309006D6EFF07C86
:10107E00007D0AAF03AE021206309006D5EDF09059
:10108E0006D3E0FAA3E0FB7C007D64FFAE021206FD
:10109E00309006DBEFF07C007D64AF03AE021206EB
:1010AE00307E007F0ACFCDCFCECCCE12063090064A
:1010BE00DAEFF09006D3E0FEA3E0FF7C007D0A128B
:1010CE0006309006D9EDF01269FCEF60030211FBB9
:1010DE00900747E004F07006900746E004F0900792
:1010EE0046E07004A3E0640160030211E39006D5AC
:1010FE00E0FD7B0C7F07123D689006D6E0FD7F0673
:10110E00123D681269AEEF702B1269D2EF70087B38
:10111E00017D0CFF1265DB7B017D0EE4FF1265DBAA
:10112E007B017D1F7F021265DB7B017D1F7F03121A
:10113E0065DB802B9006DEE0640170087B017D0C80
:10114E00FF1265DB7B017D0EE4FF1265DB7B017D0B
:10115E001F7F021265DB7B017D1F7F011265DBC3E2
:10116E009006D2E094649006D1E09400400C900674
:10117E00D7E0FD7B0C7F05123D68C39006D2E0944C
:10118E00E89006D1E0940340097B017D0AE4FF124A
:10119E0065DB7B017D0EE4FF1265DB9006D9E0FD79
:1011AE00E4FB7F09123D689006DAE0FDE47F081249
:1011BE003D68C39006D4E094649006D3E09400405A
:1011CE00080B7D11E4FF1265DB7B017D13E4FF123A
:1011DE0065DB0212EB900746E07004A3E064026048
:1011EE00030212EB900746F0A3F00212EB1269FC19
:1011FE00EF640160030212EB9006D5E0FD7B0C7FDD
:10120E0007123D689006D6E0FD7F06123D68126912
:10121E00AEEF702B1269D2EF70087B017D0CFF12BE
:10122E0065DB7B017D0EE4FF1265DB7B017D1F7F9D
:10123E00021265DB7B017D1F7F031265DB802B9025
:10124E0006DEE0640170087B017D0CFF1265DB7B1E
:10125E00017D0EE4FF1265DB7B017D1F7F021265AF
:10126E00DB7B017D1F7F011265DBC39006D2E0940C
:10127E00649006D1E09400400C9006D7E0FD7B0C04
:10128E007F05123D68C39006D2E094E89006D1E047
:10129E00940340097B017D0AE4FF1265DB7B017D2F
:1012AE000EE4FF1265DB9006D9E0FDE4FB7F091228
:1012BE003D689006DAE0FDE47F08123D68C39006B3
:1012CE00D4E094649006D3E0940040080B7D11E4C2
:1012DE00FF1265DB7B017D13E4FF1265DB9006D107
:1012EE00E0FEA3E0FFD394B4EE94004032D3EF942B
:1012FE0018EE94015029A3E0FEA3E0FFC39428EE5C
:10130E009400401BD3EF9446EE940050127B017D67
:10131E0009E4FF1265DB7B017D157F011265DB9011
:10132E0006D1E0FEA3E0FFD39478EE94004009D3FB
:10133E00EF94B4EE9400403DD3EF9418EE94014038
:10134E0009D3EF9440EE9401402B9006D3E0FEA318
:10135E00E0FFD39419EE94004009D3EF9427EE9456
:10136E00004012D3EF9446EE9400401BD3EF9455F9
:10137E00EE940050127B017D157F011265DB7B011F
:10138E007D1FE4FF1265DB9006D1E0FEA3E0FFD3E4
:10139E009478EE9400401FD3EF9440EE94015016D3
:1013AE00A3E0FEA3E0FF9419EE94004009D3EF945E
:1013BE0055EE940040127B017D15E4FF1265DB7B38
:1013CE00017D157F011265DB900747E004F0700682
:1013DE00900746E004F0900746E07004A3E0640234
:1013EE0070097B01FDFF1265DB8044900746E070BB
:1013FE0004A3E0640470097B01FDFF1265DB802FFE
:10140E00900746E07004A3E0640670097B01FDFFBF
:10141E001265DB801A900746E07004A3E064087042
:10142E000E7B01FDFF1265DBE4900746F0A3F01280
:10143E0069BA1244B71269A2EF7009FB7D07FF1259
:10144E0065DB80101269A2EF640170087B017D07D5
:10145E00FF1265DB1269A8EF7009FB7D18FF12659C
:10146E00DB80101269A8EF640170087B017D18FF04
:10147E001265DB7B017D01E4FF1265DB7B017D15CF
:10148E007F021265DB7B017D157F031265DB7B011D
:10149E007D167F021265DB7B017D167F031265DBF5
:0314AE0012087EA3
:0114B1002218
:041A2000410750002A
:104C94007B017DB07F05124AEA7D087F0212343C15
:104CA40075910253EC0F43ECC075910153B9F7436E
:104CB400BA089006D5E4F0A37432F07B567A04E483
:104CC400FD7F021246F375910243C4407D08E4FF60
:104CD4001258BE75910253FB0F43FBD075910153DB
:104CE400B1DF43B2209006D51207FB0000045690B2
:104CF40006D9E4F0A37464F0E4FBFDFF122E2B75D7
:104D0400910253FBF043FB0D75910153B1EF43B294
:104D1400109006D51207FB000004569006D9E4F063
:104D2400A37464F0E4FBFD7F01122E2B75910253F2
:104D3400EAF043EA0C75910153C2BF43C3409006A5
:104D4400D51207FB000004569006D9E4F0A374645E
:104D5400F0E4FBFD7F05122E2B75910253C47F12E4
:034D64006986223B
:1062A200EF24FE601414601B14602224037027E4A0
:1062B200F59153B14F43B12022E4F59153B14F43CD
:1062C200B13022E4F59153B14F43B11022E4F5917C
:0762D20053B14F43B110224C
:10510B001269A2EF640160030251A812694CD3EF3C
:10511B0094E8EE9403500AE4F59153B14F43B12058
:10512B002212694CD3EF9478EE9405500AE4F59172
:10513B0053B14F43B1302212694CD3EF9408EE9424
:10514B0007500AE4F59153B14F43B11022E4F591A6
:10515B0053B14F43B1101269A8EF70077591025309
:10516B00C47F221269A8EF64017043900750E004DA
:10517B00F0E0FF7E00C394327480948050077591E9
:10518B000243C48022C3EF9464EE64809480500782
:10519B0075910253C47F22E4900750F0221269A24A
:0E51AB00EF700BF59153B14F75910253C47F15
:0151B90022D3
:1028D8009006D1EFF012698D9006D1E0B40800405F
:1028E80003022B849028F3F828287302290B022965
:1028F8005E0229AB0229F8022A45022A95022AE536
:10290800022B379006D51207FB000004569006D913
:10291800E4F0A37464F0E4FBFDFF122E2B9006D5BF
:102928001207FB000004569006D9E4F0A37464F083
:10293800E4FBFD7F01122E2B9006D51207FB000049
:1029480004569006D9E4F0A37464F0E4FBFD7F0517
:10295800122E2B022B849006D51207FB000004567A
:10296800E49006D9F0A3F0FBFDFF122E2B9006D5BC
:102978001207FB00000456E49006D9F0A3F0FBFD13
:102988007F01122E2B9006D51207FB0000045690EB
:1029980006D9E4F0A37464F0E4FBFD7F05122E2B46
:1029A800022B849006D51207FB000004569006D926
:1029B800E4F0A37464F0E4FBFDFF122E2B9006D51F
:1029C8001207FB00000456E49006D9F0A3F0FBFDC3
:1029D8007F01122E2B9006D51207FB00000456E447
:1029E8009006D9F0A3F0FBFD7F05122E2B022B8455
:1029F8009006D51207FB00000456E49006D9F0A310
:102A0800F0FBFDFF122E2B9006D51207FB000004E9
:102A1800569006D9E4F0A37464F0E4FBFD7F01123C
:102A28002E2B9006D51207FB00000456E49006D919
:102A3800F0A3F0FBFD7F05122E2B022B849006D508
:102A48001207FB000004569006D9E4F0A37464F062
:102A5800E4FBFDFF122E2B9006D51207FB000004A5
:102A680056E49006D9F0A3F0FBFD7F01122E2B90BF
:102A780006D51207FB000004569006D9E4F0A374AB
:102A880064F0E4FBFD7F05122E2B022B849006D503
:102A98001207FB00000456E49006D9F0A3F0FBFDF2
:102AA800FF122E2B9006D51207FB00000456900645
:102AB800D9E4F0A37464F0E4FBFD7F01122E2B909F
:102AC80006D51207FB000004569006D9E4F0A3745B
:102AD80064F0E4FBFD7F05122E2B022B849006D5B3
:102AE8001207FB000004569006D9E4F0A37446F0E0
:102AF800E4FBFDFF122E2B9006D51207FB00000405
:102B0800569006D9E4F0A37414F0E4FBFD7F01129B
:102B18002E2B9006D51207FB000004569006D9E428
:102B2800F0A37464F0E4FBFD7F05122E2B804D901A
:102B380006D51207FB000004569006D9E4F0A374EA
:102B480064F0E4FBFDFF122E2B9006D51207FB0064
:102B58000004569006D9E4F0A37464F0E4FBFD7F0A
:102B680001122E2B9006D51207FB00000456E490A4
:102B780006D9F0A3F0FBFD7F05122E2B12698622E1
:041A24004106BD00BA
:0669CC00E49006C6F02273
:0100B200222B
:104BBF0043C02053C0F7E5C020E3169006CE740122
:104BCF00F0A3E0640170EF9006CEF0A3F01200B2F4
:104BDF0022E49006CEF0A3F0AFBDEF64086003129D
:104BEF0000B253C0DF75BCE053C0F7E5C020E31639
:104BFF009006CE7401F0A3E0640170EF9006CEF042
:104C0F00A3F01200B222E49006CEF0A3F0AFBDEFF6
:104C1F00641860031200B2E4FFEFC39D503E12050B
:104C2F0082F5BC740129F9E43AFA53C0F7E5C020C4
:104C3F00E3169006CE7401F0A3E0640170EF9006C6
:104C4F00CEF0A3F01200B222E49006CEF0A3F0AEA5
:104C5F00BDEE642860031200B20F80BD43C0105335
:104C6F00C0F7E5C020E4169006CE7401F0A3E0640F
:104C7F000170EF9006CEF0A3F01200B222E490067E
:044C8F00CEF0A3F0D0
:014C930022FE
:1045D70043C02053C0F7E5C020E3169006CE740110
:1045E700F0A3E0640170EF9006CEF0A3F01200B2E2
:1045F70022E49006CEF0A3F0AFBDEF64086003128B
:1046070000B253C0DF75BCE153C0F7E5C020E31625
:104617009006CE7401F0A3E0640170EF9006CEF02F
:10462700A3F01200B222E49006CEF0A3F0AFBDEFE4
:10463700644060031200B2E49006D1F09006D1E026
:10464700C39DEC6480F8748098504643C00453C0FF
:10465700F7E5C020E3169006CE7401F0A3E06401ED
:1046670070EF9006CEF0A3F01200B222E49006CECF
:10467700F0A3F0AFBDEF645060031200B2E5BC12C7
:1046870005EA740129F9E43AFA9006D1E004F080CA
:10469700AB53C0FB53C0F7E5C020E3169006CE74BA
:1046A70001F0A3E0640170EF9006CEF0A3F01200D2
:1046B700B222E49006CEF0A3F0AFBDEF64586003DA
:1046C7001200B243C01053C0F7E5C020E4169006AD
:1046D700CE7401F0A3E0640170EF9006CEF0A3F072
:0B46E7001200B222E49006CEF0A3F017
:0146F20022A5
:105D150075910253E10F43E14075910143BD08437D
:105D2500BE0875910253E1F043E10475910143BD4D
:105D35000443BE04E4F59175BE0D43C0409006C60C
:105D4500F09006BE7435F0A37417F07B017A0679DE
:105D5500BE7D02124BBF9006BE7480F0A3745DF049
:085D65007A0679BE124BBF2241
:1030A0009006C6E0FC701C9006BE7435F0A3741741
:1030B000F07B017A0679BE7D02124BBF9006C67482
:1030C00001F022EC6401701C9006BE747CF0A374C5
:1030D000A2F07B017A0679BE7D02124BBF9006C634
:0F30E0007402F0229006C6E0FF7E006402701CAE
:1030EF009006BCE004F0E0D39414748094805003F5
:0B30FF00023291E4F09006C67403F06A
:10310A0022EF64034E600302326C7B017A0679C0B7
:10311A007D06FC1245D79006C67404F07A0679C07B
:10312A007D02125CBC9006CDEFF07B017A0679C372
:10313A007D027C00125CBC9006CDEFF07B017A0622
:10314A0079C07D027C00125CBC9006C2E06F60030D
:10315A000232917B017A0679C37D02FC125CBC9033
:10316A0006C5E06F60030232919006C0E0FF900648
:10317A00C9E4F0A3EFF0E0F8E4F0E89006C9F090B3
:10318A0006C1E0FF9006CAE02FF09006C9E03400BD
:10319A00F0E0FCA3E0FDE41203D2E4FBFA798078C4
:1031AA00471202B77B007AC079DA78441201AEE49A
:1031BA00FBFA797078C11200BD12040B9006C9EEB1
:1031CA00F0A3EFF0C394C2EE94014013E0243EF062
:1031DA009006C9E034FEF09006D07401F080199090
:1031EA0006C9E0FEA3E0FFC374C29FF074019E907B
:1031FA0006C9F0E49006D0F09006C9E0FFA3E0907B
:10320A0006C7CFF0A3EFF09006C3E0FF9006CBE429
:10321A00F0A3EFF0E0F8E4F0E89006CBF09006C4F3
:10322A00E0FF9006CCE02FF09006CBE03400F0E00F
:10323A00FCA3E0FDE41203D2E4FBFA79807847129A
:10324A0002B7E4FBFA79C878421201AEE4FBFA79D4
:10325A002078411200BD12040B9006CBEEF0A3EFCA
:10326A00F0229006C6E06404701D9006BE74B0F0A9
:10327A00A37498F07B017A0679BE7D02124BBFE4F3
:08328A009006C6F01269DE2275
:105BA50043C02053C0F7E5C030E3FBAEBDEE64084B
:105BB50060031200B253C0DF75BCE053C0F7E5C007
:105BC50030E3FBAEBDEE641860031200B2E4FEEEF6
:105BD500C3940A74809480501A8FBC53C0F7E5C0F3
:105BE50030E3FBADBDED642860031200B2EFF4FFB6
:0E5BF5000E80DC43C01053C0F7E5C020E4FB77
:015C0300227E
:1055E90043C02053C0F7E5C030E3FBAEBDEE64080D
:1055F90060031200B253C0DF75BCE153C0F7E5C0C8
:1056090030E3FBAEBDEE644060031200B2E4FEEE8F
:10561900C3940A74809480502343C00453C0F7E5AF
:10562900C030E3FBADBDED645060031200B2E5BCD0
:105639006F60031200B2EFF4FF0E80D353C0FB5327
:10564900C0F7E5C030E3FBAFBDEF6458600312005B
:0C565900B243C01053C0F7E5C020E4FBD2
:015665002222
:096955009006C7E0FEA3E0FF225A
:09695E009006CBE0FEA3E0FF224D
:106627009006CEE06401701B9006BDE004F0E0D355
:10663700940A74809480400B9006CF7401F0E49024
:0366470006BDF09D
:01664A00222D
:0669D2009006D0E0FF2258
:07699B009006D07401F02208
:10676600E4F5915389F0F591538EF7F591758CC147
:0C677600758A0F43A802D2AF438810229E
:03000B000232922C
:10329200C0E0C0F0C083C082C0D075D000C000C002
:1032A20001C002C003C004C005C006C007C09175BA
:1032B2009100758CC1758A0FC28D900697E004F05B
:1032C200A3E004F0A3E004F0A3E004F0A3E004F020
:1032D200A3E004F0A3E004F0A3E004F09006A0E071
:1032E20004F0700690069FE004F09006A2E004F05D
:1032F20070069006A1E004F09006A4E004F07006C7
:103302009006A3E004F0126627900697E0C39401AA
:1033120074809480400B9006A57401F0900697E4A7
:10332200F0900698E0C3940A74809480400B900653
:10333200A67401F0900698E4F0900699E0C3941404
:1033420074809480400B9006A77401F0900699E473
:10335200F090069AE0C3941E74809480400B90060D
:10336200A87401F090069AE4F090069BE0C39428BA
:1033720074809480400B9006A97401F090069BE43F
:10338200F090069CE0C3943274809480400B9006C7
:10339200AA7401F090069CE4F090069DE0C3946448
:1033A20074809480400B9006AB7401F090069DE40B
:1033B200F090069EE0C394C874809480400B9006FF
:1033C200AC7401F090069EE4F0C39006A0E094F481
:1033D20090069FE09401400D9006AD7401F09006B6
:1033E2009FE4F0A3F0C39006A2E094E89006A1E067
:1033F2009403400D9006AE7401F09006A1E4F0A390
:10340200F0C39006A4E094889006A3E09413400DC4
:103412009006AF7401F09006A3E4F0A3F0D091D02F
:1034220007D006D005D004D003D002D001D000D0FE
:0A343200D0D082D083D0F0D0E03279
:104136009006A5E0640170149006B0E06401700377
:104146001230A0125448E49006A5F0229006A6E08C
:10415600640170121235D412510B1269B41228D8A8
:10416600E49006A6F0229006A7E06401705A7F0448
:104176001214B2E4FF1214B29006B3E06401704266
:10418600A3E06401700AFDFF123A72E49006B4F0EF
:104196007D01E4FF123A7212575C1237679006B53A
:1041A600E02402F0E0D3945F74809480400F900680
:1041B600B47401F09006B6F0E49006B5F0E490060B
:1041C600B3F0E49006A7F0229006ADE06401701B00
:1041D600126955C006C00712695EAC06AD07D00766
:1041E600D006120F30E49006ADF0229006AEE064E1
:0341F60001706FE6
:1041F90012664B9006B9EEF0A3EFF09006B0740189
:10420900F0A3E004F0E0C3943C748094804015A3CB
:10421900E004F0E49006B1F0900696E004F0900610
:10422900B37401F09006B2E0D3941E748094804078
:1042390005E4F0A304F0900696E0D3940A74809400
:1042490080400E9006BB7401F0900696740BF080C6
:0E42590005E49006BBF0125E71E49006AEF034
:0B426700229006AFE064017001F0221D
:0669D8009006B0E0FF2272
:0669DE00E49006B0F02277
:0669E4009006B5E0FF2261
:0669EA009006B6E0FF225A
:0669F0009006B6EFF02254
:0669F6009006B5EFF0224F
:096967009006B9E0FEA3E0FF2256
:0669FC009006BBE0FF2243
:1060E80075910253F30F43F36075910153B5F7535C
:1060F800B6F775910253F3F043F30675910143B572
:106108000453B6FB9006D57403F0A31207FB0000F6
:1061180025807F007E367D6E7C011238F5E4F5918E
:06612800439C01D2AF22EE
:0E6170009006D1EBF0A3EAF0A3E9F0A3EDF066
:10617E00E4A3F09006D4E0FFA3E0FEC39F5021906D
:10618E0006D1E0FBA3E0FAA3E0F98E82758300123C
:10619E00059BFD7F0712666E9006D5E004F080D356
:0161AE0022CE
:10612E0075910253F40F43F4D075910153B5DF53BB
:10613E00B6DF75910253F4F043F40D75910143B53A
:10614E001053B6EF9007191207FB000025807F0051
:10615E007E367D6E7C011251BAE4F59143DD01D29B
:02616E00AF225E
:0E61AF00900733EBF0A3EAF0A3E9F0A3EDF0C4
:1061BD00E4A3F0900736E0FFA3E0FEC39F502190CB
:1061CD000733E0FBA3E0FAA3E0F98E82758300129A
:1061DD00059BFD7F0412666E900737E004F080D3B7
:0161ED00228F
:1062680075910253FEF043FE0675910153B3FB533B
:10627800B4FB75910253FD0F43FD6075910143B363
:106288000253B4FD9007211207FB000025807F0010
:0A6298007E367D6E7C01124FA422B9
:0E68EE00900751EFF012009E900751E0FF223C
:1061EE0075C7AA75C75575AA07E4F591A2AF9205B2
:1061FE00C2AF75C7AA75C75543AA80A20592AFF55F
:10620E0091A2AF9205C2AF75C7AA75C75543AA40F2
:0E621E00A20592AFAFAAEF44BF74FF60F72253
:10630F00E4F591A2AF9205C2AF75C7AA75C75553F1
:10631F00AADFA20592AFF591A2AF9205C2AF75C7E2
:10632F00AA75C75543AA40A20592AFAFAAEF44BFC3
:05633F0074FF60F7226D
:0C6922007B017D087F01124AEAC293222B
:101A28006100000000C1814001C0804101C08041C7
:101A380000C1814001C0804100C1814000C1814096
:101A480001C0804101C0804100C1814000C1814086
:101A580001C0804100C1814001C0804101C0804176
:101A680000C1814001C0804100C1814000C1814066
:101A780001C0804100C1814001C0804101C0804156
:101A880000C1814000C1814001C0804101C0804146
:101A980000C1814001C0804100C1814000C1814036
:101AA80001C0804101C0804100C1814000C1814026
:101AB80001C0804100C1814001C0804101C0804116
:101AC80000C1814000C1814001C0804101C0804106
:101AD80000C1814001C0804100C1814000C18140F6
:101AE80001C0804100C1814001C0804101C08041E6
:101AF80000C1814001C0804100C1814000C18140D6
:101B080001C0804101C0804100C1814000C18140C5
:101B180001C0804100C1814001C0804101C08041B5
:101B280000C181406100010000C0C101C30302C2BD
:101B3800C60607C705C5C404CC0C0DCD0FCFCE0E05
:101B48000ACACB0BC90908C8D81819D91BDBDA1A75
:101B58001EDEDF1FDD1D1CDC14D4D515D71716D6E5
:101B6800D21213D311D1D010F03031F133F3F23255
:101B780036F6F737F53534F43CFCFD3DFF3F3EFEC5
:101B8800FA3A3BFB39F9F83828E8E929EB2B2AEA35
:101B9800EE2E2FEF2DEDEC2CE42425E527E7E626A5
:101BA80022E2E323E12120E0A06061A163A3A26215
:101BB80066A6A767A56564A46CACAD6DAF6F6EAE85
:101BC800AA6A6BAB69A9A86878B8B979BB7B7ABAF5
:101BD800BE7E7FBF7DBDBC7CB47475B577B7B67665
:101BE80072B2B373B17170B05090915193535292D5
:101BF80096565797559594549C5C5D9D5F9F9E5E45
:101C08005A9A9B5B99595898884849894B8B8A4AB4
:101C18004E8E8F4F8D4D4C8C448485458747468624
:081C28008242438341818040A8
:0E5EC5009006D6EBF0A3EAF0A3E9F0A3EDF00F
:105ED3007FFF7DFF9006D9E0FE14F0EE603190065F
:105EE300D6E0FBA3E475F00112069BA9F0FA1205B4
:105EF300826DFB7A002400F582EA3400F583E06FBB
:105F0300FD74002BF582EA3401F583E0FF80C5EFD1
:035F1300FEEDFFA1
:015F16002268
:101C30004A047207000645020E031304FF5603A16F
:101C400009000A010B070C060D200E000F201020C2
:101C50001127120013004203BB00405403BD2B4266
:101C60002C3F2D1F2E252FE730033142338F3C4070
:101C70003D034803D121402224240026305603FF8F
:101C800028AA29002D16300031643A942E6434BC01
:101C90002F442602276644041578563412590459F5
:101CA00006080B0F000305090D000305090D0003CD
:101CB000060A0E0006080B0F00480399221B238515
:101CC00024EB2501560482140915601666171318B3
