:106993007F02124AD71266A4126CDF1250C3124947
:1069A300B21267AA1262D1126036126AD7122E8B04
:0F69B300125F6512688F1239151263D780F522B3
:041E250041073D0034
:03009B00026D16DD
:106D1600C0E0C083C082C09175910090073DE5D95F
:0A6D2600F0D091D082D083D0E0328B
:1055E90090070E12124AE4F59143D601F59143D77B
:1055F90001F59143D702F59153D6EFF59153D6F7BB
:105609007B08FAF9F890070EE0FCA3E0FDA3E0FEA1
:10561900A3E0FF121197900712E0F8A3E0F9A3E0C5
:10562900FAA3E0FB121197EF24FFFFEE34FFFEED22
:1056390034FFFDEC34FFFCEFE48FDB53DCF07B0837
:10564900FAF9F890070EE0FCA3E0FDA3E0FEA3E061
:10565900FF121197900712E0F8A3E0F9A3E0FAA36B
:10566900E0FB121197EF24FFFFEE34FFFEED34FF4C
:10567900FDEC34FFFC7808121237EF540F42DCE4DA
:0E568900F59143D74053D7CFF59143D68022F9
:106E1400E4F59153D6FDE5DF5402640260F8AFD97E
:016E2400224B
:10000E00E4F59153D6FB8FD9E5DF440860FAE4F5A9
:05001E009153D6FB2206
:040003008F828E83D7
:03000700E493FF80
:01000A0022D3
:102BB100EE7016EF24FE600B04700EE4F59153E104
:102BC100EF8006E4F59143E110EDB41100400302FA
:102BD1002E84902BDAF8282873022C0D022C330254
:102BE1002C5C022C85022CAE022CD7022D00022D6A
:102BF10029022E52022E6A022D52022D7D022DA88B
:102C0100022DD3022DFE022E28022E787591025339
:102C1100F40F43F41075910143B52053B6DF75915C
:102C210001E4F5CE43CE01F59153A1F043E1010258
:102C31002E8475910253F4F043F40175910143B56B
:102C41001053B6EF759101E4F5CE43CE02F59153E1
:102C5100A1F043A10143E101022E8475910253F3D6
:102C61000F43F31075910143B50853B6F775910100
:102C7100E4F5CE43CE04F59153A1F043A10243E123
:102C810001022E8475910253F3F043F30175910112
:102C910043B50453B6FB759101E4F5CE43CE08F577
:102CA1009153A1F043A10343E101022E84759102E6
:102CB10053F20F43F21075910143B50253B6FD75FE
:102CC1009101E4F5CE43CE10F59153A1F043A10457
:102CD10043E101022E8475910253F2F043F2017532
:102CE100910143B50153B6FE759101E4F5CE43CE92
:102CF10020F59153A1F043A10543E101022E847512
:102D0100910253F60F43F61075910143C20253C36A
:102D1100FD759101E4F5CE43CE40F59153A1F04309
:102D2100A10643E101022E8475910253F7F043F7A6
:102D31000175910143C20453C3FB759101E4F5CEC2
:102D410043CE80F59153A1F043A10743E101022E47
:102D51008475910253F6F043F60175910143C20166
:102D610053C3FEE4F591759102F5CE43CE04F5917E
:102D710053A13043A10A43E101022E84759102530C
:102D8100950F43951075910243848053857FE4F537
:102D910091759102F5CE43CE08F59153A13043A12F
:102DA1000B43E101022E847591025395F043950185
:102DB1007591024384405385BFE4F591759102F505
:102DC100CE43CE10F59153A13043A10C43E1010252
:102DD1002E8475910253940F43941075910243848C
:102DE100205385DFE4F591759102F5CE43CE20F5B0
:102DF1009153A13043A10D43E101022E847591024B
:102E01005394F04394017591024384105385EFE488
:102E1100F591759102F5CE43CE40F59153A1304322
:102E2100A10E43E101805C75910253F50F43F5104A
:102E310075910143B58053B67FE4F591759102F523
:102E4100CE43CE80F59153A13043A10F43E10180E0
:102E510032E4F59153E1FEF59143A140F59153A17F
:102E6100F043A10843E101801AE4F59153A1F04335
:102E7100A10943E101800CE4F59153A1F043A10ABA
:0A2E810043E101E4F59143E1012271
:076F0000E4F59153E1FE22CC
:106A7D00900739EEF0A3EFF0E4F591EFF5CB900729
:106A8D0039E0F5E4ED14F5E5EB14600A04700DE45E
:0D6A9D00F59143E78022E4F59153E77F2255
:106CFB00E4F59153E78FEF5407FFC454F042E75389
:0B6D0B00E2F1ED5407FF25E042E22218
:10609D00E4F591EF14600F1460141460192403706B
:1060AD001B53A1CF801653A1CF43A110800E53A136
:1060BD00CF43A120800653A1CF43A130ED14600F33
:1060CD001460141460192403701B53E1F3801653EC
:1060DD00E1F343E104800E53E1F343E108800653FD
:1060ED00E1F343E10CAF038FE3E4F59153A1BF431B
:0360FD00E102229B
:076F0700E4F59153E1FD22C6
:106A4F00E4F591EF14600704702353A8BF22ED14EF
:106A5F00600D24FE60112403701043E130800B435E
:0E6A6F00E10153E1DF800353E1CF43A8402251
:105D3B00E4F591A2AF9205C2AF75C7AA75C75543DB
:105D4B009F01A20592AF75AF0475A60DF5A7F5914E
:105D5B00A2AF9205C2AF75C7AA75C75543A401A2DE
:105D6B000592AFE5AE540FFD75A60CE4F591A2AF0D
:105D7B009205C2AF75C7AA75C75543A401A2059278
:105D8B00AFAFAEEF75F010A47C002DFFEC35F0FE3D
:105D9B00E4F591A2AF9205C2AF75C7AA75C755536B
:065DAB009FFEA20592AF6D
:015DB10022CF
:104E1B00EF14601B04702E759101A2AF9205C2AF07
:104E2B0075C7AA75C75553A9FEA20592AF80167513
:104E3B009101A2AF9205C2AF75C7AA75C75543A919
:104E4B0001A20592AFED14601B04702E759101A2A7
:104E5B00AF9205C2AF75C7AA75C75543A902A20584
:104E6B0092AF8016759101A2AF9205C2AF75C7AA1A
:104E7B0075C75553A9FDA20592AFEB1460211460C1
:104E8B003514604914605D2404706F759101A2AFF5
:104E9B009205C2AF75C7AA75C755A20592AF227509
:104EAB009101A2AF9205C2AF75C7AA75C75543A9A9
:104EBB0010A20592AF22759101A2AF9205C2AF75F8
:104ECB00C7AA75C75543A920A20592AF22759101B8
:104EDB00A2AF9205C2AF75C7AA75C75543A930A239
:104EEB000592AF22759101A2AF9205C2AF75C7AA09
:0B4EFB0075C75543A940A20592AF22E5
:10258600AE03EEC454F02F12128725C40025CC01E9
:1025960025D40225DC0325E40425EC0525F40625CF
:1025A600FC07260410260C11261412261C132624BA
:1025B60014262C15263416263C1700002642759143
:1025C6000153E9FE807675910153E9FD806E7591A0
:1025D6000153E9FB806675910153E9F7805E7591B9
:1025E6000153E9EF805675910153E9DF804E7591ED
:1025F6000153E9BF804675910153E97F803E75918D
:102606000143E901803675910143E902802E7591F7
:102616000143E904802675910143E908801E7591FE
:102626000143E910801675910143E920800E7591EA
:102636000143E940800675910143E980AE05EEC489
:1026460054F02F12128726980026A70126B60226D6
:10265600C50326D40426E30526F20627010727101C
:1026660010271F11272E12273D13274C14275B1501
:10267600276A1627781727862027942127A222273C
:10268600B02327BE2427CC2527DA2627E8270000F3
:1026960027F475910143EA0175910153EBFE022778
:1026A600F475910143EA0275910153EBFD0227F49B
:1026B60075910143EA0475910153EBFB0227F4750A
:1026C600910143EA0875910153EBF70227F47591DE
:1026D6000143EA1075910153EBEF0227F47591015E
:1026E60043EA2075910153EBDF0227F4759101430C
:1026F600EA4075910153EBBF0227F475910143EA55
:102706008075910153EB7F0227F475910153EAFE20
:1027160075910143EB010227F475910153EAFD75AA
:10272600910143EB020227F475910153EAFB75917F
:102736000143EB040227F475910153EAF775910101
:1027460043EB080227F475910153EAEF75910143B3
:10275600EB100227F475910153EADF75910143EB03
:10276600200227F475910153EABF75910143EB40AE
:10277600807C75910153EA7F75910143EB80806EF1
:1027860075910143EA0175910143EB0180607591F2
:102796000143EA0275910143EB02805275910143B0
:1027A600EA0475910143EB04804475910143EA08FC
:1027B60075910143EB08803675910143EA107591D6
:1027C6000143EB10802875910143EA20759101437E
:1027D600EB20801A75910143EA4075910143EB4065
:1027E600800C75910143EA8075910143EB80EFB44B
:1027F600080040030228C3902804F82828730228FA
:102806001C02283202284702285C02287102288608
:1028160002289B0228B0E4F5A19006F5E0FFC45417
:10282600F0FFA3E0540F2FF5A10228C3E4F5A29010
:1028360006F5E0FFC454F0FFA3E0540F2FF5A28085
:102846007CE4F5A39006F5E0FFC454F0FFA3E05442
:102856000F2FF5A38067E4F5A49006F5E0FFC454B6
:10286600F0FFA3E0540F2FF5A48052E4F5A59006DF
:10287600F5E0FFC454F0FFA3E0540F2FF5A5803D0B
:10288600E4F5A69006F5E0FFC454F0FFA3E0540F6C
:102896002FF5A68028E4F5A79006F5E0FFC454F0CE
:1028A600FFA3E0540F2FF5A78013E4F5AF9006F5CC
:1028B600E0FFC454F0FFA3E0540F2FF5AFE4F59109
:0428C600439B02220C
:105A4500759101EB14604204707CEFB40700507649
:105A5500905A5CF8282873025A71025A75025A79CD
:105A6500025A7D025A81025A85025A89ED429222D2
:105A7500ED429322ED429422ED429522ED4296228B
:105A8500ED429722ED42972222EFB407005037905E
:105A95005A9BF8282873025AB0025AB4025AB8021F
:105AA5005ABC025AC0025AC4025AC8ED428A22EDB3
:105AB500428B22ED428C22ED428D22ED428E22ED6B
:075AC500428F22ED428F2207
:1057EF00759101EB14604F046003025889EFB40701
:1057FF0000400302588990580CF82828730258214A
:10580F0002582602582B02583002583502583A02D5
:10581F00583FEDF4529222EDF4529322EDF452944C
:10582F0022EDF4529522EDF4529622EDF452972286
:10583F00EDF452972222EFB40700503E905852F8E1
:10584F0028287302586702586C0258710258760262
:10585F00587B025880025885EDF4528A22EDF4529B
:10586F008B22EDF4528C22EDF4528D22EDF4528EF8
:0B587F0022EDF4528F22EDF4528F2234
:074FEE00A905900702EFF096
:104FF500759101EFB407005044905005F8282873C7
:1050050002501A02502002502602502C0250320241
:10501500503802503EACB1AEB28022ACB3AEB480D3
:105025001CACB5AEB68016ACC2AEC38010ACB9AE82
:10503500BA800AACBDAEBE8004AC84AE85EB14600C
:105045001414601A14602024037022E9F4FF5CFC38
:10505500EE5FFE8018E9F45CFCEE49FE800FEC493A
:10506500FCE9F45EFE8006EC49FCEE49FE90070281
:10507500E0B407005044905082F8282873025097F6
:1050850002509D0250A30250A90250AF0250B50232
:1050950050BB8CB18EB280228CB38EB4801C8CB583
:1050A5008EB680168CC28EC380108CB98EBA800ADB
:0D50B5008CBD8EBE80048C848E85E4F59148
:0150C20022CB
:105EFB00E4F591EF14603304705FE47B04FAF9F876
:105F0B00900706E0FCA3E0FDA3E0FEA3E0FF121167
:105F1B009790070AE0F8A3E0F9A3E0FAA3E0FB12DD
:105F2B001197EF14F5BE43C04022E47B04FAF9F855
:105F3B00900706E0FCA3E0FDA3E0FEA3E0FF121137
:105F4B009790070AE0F8A3E0F9A3E0FAA3E0FB12AD
:0A5F5B001197EF14F5B543E840225A
:106DCC00E4F591EF14600704700753C0BF2253E839
:026DDC00BF22D4
:106D4900E4F591EF14600A04700DE4F591439B0199
:086D590022E4F591439C202285
:106D6100E4F591EF14600A04700DE4F591539BFE74
:086D710022E4F591539CDF229E
:106DA600E4F591EF146007047006AEBD8002AEB440
:026DB600AF0626
:016DB80022B8
:10632900EF14602B04704FED1460111460151460A4
:10633900192403701AE4F5918BC180137591028BAE
:10634900A1800C7591028BA280057591028BA3ED3A
:1063590014601014601314601624037019E4F59185
:106369008BB2227591028BA4227591028BA522759D
:076379009102AF038FA62281
:106DDE00E4F591EF14600704700743BF062243B633
:026DEE0006227B
:106DF000E4F591EF14600704700753BFFB2253B60C
:026E0000FB2273
:106E0200E4F591EF14600704700753BFFE2253B6F6
:026E1200FE225E
:106E2500759102EF146006047006ED42CFED42D76E
:016E3500223A
:106DB900759102EF146007047008EDF452CFEDF4F9
:036DC900F5D722D9
:041E290041073E002F
:0300B300026CC319
:106CC300C0E0C083C082C091759102D20690073E96
:0C6CD300E5D9F0D091D082D083D0E0321F
:1053D30090071612124A75910243E6017591024332
:1053E300E70175910243E70275910253E6EF759168
:1053F3000253E6F7E47B08FAF9F8900716E0FCA3FA
:10540300E0FDA3E0FEA3E0FF12119790071AE0F876
:10541300A3E0F9A3E0FAA3E0FB121197EF24FFFF47
:10542300EE34FFFEED34FFFDEC34FFFCEFE48FDBE5
:1054330053DCF07B08FAF9F8900716E0FCA3E0FDD3
:10544300A3E0FEA3E0FF12119790071AE0F8A3E090
:10545300F9A3E0FAA3E0FB121197EF24FFFFEE3468
:10546300FFFEED34FFFDEC34FFFC7808121237EF3A
:10547300540F42DC75910243E74053E7CF75910225
:0454830043E680225A
:10007E0075910253E6FDE5DF60067E007F01800488
:0C008E007E007F00EF64024E60ECAFD9F2
:01009A002243
:10009E0075910253E6FB8FD9E5DF30E3FB759102D4
:0400AE0053E6FB22F8
:061E2D00C100C101C10269
:1069620075910253F60F43F66075910153C2FD53C0
:10697200C3FD9006F67402F0A31212560001C20083
:106982007F007E367D6E7C01124171439802D200F7
:0169920022E2
:03002300026C6804
:106C6800C0E0C083C082C09130980BD20290073B2D
:0F6C7800E599F05398FED091D082D083D0E032CE
:104171009006F212124A9006F6E024FE605D147079
:104181000302426924FD600D147003024269240692
:1041910060030242EDE4F59175985043892043870D
:1041A10080F591438E10F59153C4DF7B10FAF9F835
:1041B1009006F2E0FCA3E0FDA3E0FEA3E0FF1211F4
:1041C100979006F7E0F8A3E0F9A3E0FAA3E0FB1269
:1041D1001197EFF404F58D43884022E4F591759829
:1041E1005043878053C4F8F59143C4207B10FAF9FA
:1041F100F89006F2E0FCA3E0FDA3E0FEA3E0FF12CD
:1042010011979006F7E0F8A3E0F9A3E0FAA3E0FB29
:10421100121197C3E49FFFE49EFE74019DFDE49C8F
:10422100FC78081212378FC6E47B10FAF9F8900671
:10423100F2E0FCA3E0FDA3E0FEA3E0FF12119790E2
:1042410006F7E0F8A3E0F9A3E0FAA3E0FB12119767
:10425100C3E49FFFE49EFE74019DFDE49CFCEFE43A
:104261008FC5F59143C40822E4F59175F85075C4E2
:10427100887B10FAF9F89006F2E0FCA3E0FDA3E0D8
:10428100FEA3E0FF1211979006F7E0F8A3E0F9A36F
:10429100E0FAA3E0FB121197C3E49FFFE49EFE74D2
:1042A100019DFDE49CFC78081212378FC6E47B1057
:1042B100FAF9F89006F2E0FCA3E0FDA3E0FEA3E02A
:1042C100FF1211979006F7E0F8A3E0F9A3E0FAA333
:1042D100E0FB121197C3E49FFFE49EFE74019DFD74
:0D42E100E49CFCEFE48FC5F59143C4082276
:106C8700E4F591EF24F9600C0470103098FDAE998B
:0D6C9700C298800730F8FDAE9AC2F8AF0633
:016CA40022CD
:106BC700E4F591EF24F9600D047015C2998D9930A1
:106BD70099FDC29922C2F9AF058F9A30F9FDC2F922
:016BE700228B
:106AAA00EF24F96013047024ED14600704701D5379
:106ABA00A8EF2243A8102222ED14600A04700DE404
:0D6ACA00F591539CFE22E4F591439C0122BE
:105DB200EF14600B04700EE4F591538EBF8006E47D
:105DC200F591438E40759101ED24FE602024FE6022
:105DD2002324FC602624F8602924F0602C24E0604F
:105DE2002F24C06032247F703453DFF82253DFF84F
:105DF20043DF022253DFF843DF022253DFF843DF9F
:105E0200032253DFF843DF042253DFF843DF052286
:0E5E120053DFF843DF062253DFF843DF072299
:1036A000759101ED14600C1460112402701353DF46
:1036B0003F800E53DF3F43DF40800653DF3F43DF51
:1036C00080EB14600804700853DFEF800343DF10C1
:1036D000EF14607514700302379F1470030237F5FE
:1036E00014700302384B1470030238A024056003E1
:1036F0000238F39006FAE0FEA3E0FFE4FCFD90063A
:10370000F6E0F8A3E0F9A3E0FAA3E0FB12110CE461
:103710007B64FAF9F812119778081212378FD29059
:1037200006FAE0FEA3E0FFE4FCFD9006F6E0F8A355
:10373000E0F9A3E0FAA3E0FB12110CE47B64FAF9D0
:10374000F81211978FDA0238F39006FAE0FEA3E040
:10375000FFE4FCFD9006F6E0F8A3E0F9A3E0FAA38D
:10376000E0FB12110CE47B64FAF9F8121197780867
:103770001212378FD39006FAE0FEA3E0FFE4FCFDBF
:103780009006F6E0F8A3E0F9A3E0FAA3E0FB12113B
:103790000CE47B64FAF9F81211978FDB0238F3908E
:1037A00006FAE0FEA3E0FFE4FCFD9006F6E0F8A3D5
:1037B000E0F9A3E0FAA3E0FB12110CE47B64FAF950
:1037C000F812119778081212378FD49006FAE0FE9B
:1037D000A3E0FFE4FCFD9006F6E0F8A3E0F9A3E027
:1037E000FAA3E0FB12110CE47B64FAF9F8121197CA
:1037F0008FDC0238F39006FAE0FEA3E0FFE4FCFD64
:103800009006F6E0F8A3E0F9A3E0FAA3E0FB1211BA
:103810000CE47B64FAF9F812119778081212378FCA
:10382000D59006FAE0FEA3E0FFE4FCFD9006F6E08A
:10383000F8A3E0F9A3E0FAA3E0FB12110CE47B6427
:10384000FAF9F81211978FDD0238F39006FAE0FECC
:10385000A3E0FFE4FCFD9006F6E0F8A3E0F9A3E0A6
:10386000FAA3E0FB12110CE47B64FAF9F812119749
:1038700078081212378FC49006FAE0FEA3E0FFE446
:10388000FCFD9006F6E0F8A3E0F9A3E0FAA3E0FB64
:1038900012110CE47B64FAF9F81211978FCC805363
:1038A0009006FAE0FEA3E0FFE4FCFD9006F6E0F8E7
:1038B000A3E0F9A3E0FAA3E0FB12110CE47B64FAA5
:1038C000F9F812119778081212378FC59006FAE0AE
:1038D000FEA3E0FFE4FCFD9006F6E0F8A3E0F9A308
:1038E000E0FAA3E0FB12110CE47B64FAF9F8121180
:1038F000978FCD9006F6E0FCA3E0FDA3E0FEA3E0E9
:10390000FF78081212378FD19006F6E0A3E0A3E00B
:05391000A3E0F5D9223F
:1061C000759101A2AF9205C2AFAE05EE541075C72E
:1061D000AA75C75542F9EF14601514601D146025A7
:1061E0002403702A75C7AA75C75543F901801F7526
:1061F000C7AA75C75543F902801475C7AA75C75554
:1062000043F904800975C7AA75C75543F907EE75A8
:0C621000C7AA75C755F5FAA20592AF2287
:106E360075910175C7AA75C755E4F5F9A20592AF14
:016E46002229
:076F0E00E4F59143D180225C
:076F1500E4F59153D17F2246
:105E2000EF14600B04700EE4F591538EBF8006E40E
:105E3000F591438E40759102ED24FE602024FE60B2
:105E40002324FC602624F8602924F0602C24E060E0
:105E50002F24C06032247F7034539DF822539DF864
:105E6000439D0222539DF8439D0222539DF8439D7A
:105E70000322539DF8439D0422539DF8439D052220
:0E5E8000539DF8439D0622539DF8439D072233
:103B38009006F2EDF0C091EF24FE7003023BD8141A
:103B48007003023C5924026003023CCD9006F2E067
:103B580024FE602824FE603024FC603824F860408D
:103B680024F0604824E0605024C06058247F60033B
:103B7800023CCD759102539DF8023CCD75910253DC
:103B88009DF8439D01023CCD759102539DF8439DDC
:103B980002023CCD759102539DF8439D03023CCD32
:103BA800759102539DF8439D04023CCD75910253D3
:103BB8009DF8439D05023CCD759102539DF8439DA8
:103BC80006023CCD759102439D07023CCD023CCDD7
:103BD8009006F2E024FE602824FE603024FC603861
:103BE80024F8604024F0604824E0605024C0605706
:103BF800247F6003023CCD75910253C5F8023CCD89
:103C080075910253C5F843C501023CCD7591025325
:103C1800C5F843C502023CCD75910253C5F843C5AA
:103C280003023CCD75910253C5F843C504023CCD4F
:103C380075910253C5F843C505023CCD75910253F1
:103C4800C5F843C506807E75910243C50780768016
:103C5800749006F2E024FE602424FE602B24FC60AD
:103C68003224F8603924F0604024E0604724C060C2
:103C78004E247F705075910253D5F8804875910293
:103C880053D5F843D501803D75910253D5F843D5F6
:103C980002803275910253D5F843D5038027759178
:103CA8000253D5F843D504801C75910253D5F843C7
:103CB800D505801175910253D5F843D50680067550
:083CC800910243D507D09122BF
:104BF7009006F3EDF0C091759102EF24FE605F140B
:104C07007003024CB624026003024D079006F3E0DE
:104C17001460240470409006F6E0FCA3E0FDAF03A7
:104C2700AE021210797C007D6412108BAC06AD07C2
:104C3700ECF58A8D9A801F9006F6E0FCA3E0FDAFA5
:104C470003AE021210797C007D6412108BAC06ADA6
:104C570007ECF58B8D9BEAF5868B99024D0790063D
:104C6700F3E01460240470409006F6E0FCA3E0FD36
:104C7700AF03AE021210797C007D6412108BAC0674
:104C8700AD07ECF5BA8DC2801F9006F6E0FCA3E0F5
:104C9700FDAF03AE021210797C007D6412108BAC5D
:104CA70006AD07ECF5BB8DC3EAF5B98BC180519012
:104CB70006F3E01460240470409006F6E0FCA3E0DD
:104CC700FDAF03AE021210797C007D6412108BAC2D
:104CD70006AD07ECF5CA8DD2801F9006F6E0FCA35F
:104CE700E0FDAF03AE021210797C007D6412108BD9
:104CF700AC06AD07ECF5CB8DD3EAF5C9AF038FD181
:034D0700D0912226
:0B446B00900726EEF0A3EFF0A3EDF0A9
:10447600E4A3F0900726E0FEA3E07807CEC313CEB0
:1044860013D8F97807C333CE33CED8F9FF90072A6D
:10449600EEF0A3EFF0E4900729F0900729E0FFC3C0
:1044A600948074809480502990072BE02FFF90070A
:1044B6002AE03400FE1200037E00900729E024194A
:1044C600F582E43403F583EFF0900729E004F080E9
:1044D600C9900728E0FF7C00900727E0547F241945
:1044E600F582EC3403F583EFF090072AE0FEA3E0B3
:1044F600F5A6EEF5A775AEFFE4F591A2AF9205C25B
:10450600AF75C7AA75C755439F01A20592AFF5912E
:10451600A2AF9205C2AF75C7AA75C75543A501A23A
:104526000592AF75AF22F591A2AF9205C2AF75C7DE
:10453600AA75C75543A401A20592AFF591A2AF9201
:1045460005C2AF75C7AA75C755439F01A20592AFAD
:10455600F591A2AF9205C2AF75C7AA75C75543A517
:1045660001A20592AF75AF21900729F0900729E0C7
:10457600FDC39480748094805038A3E0FEA3E0FCD1
:10458600ED2CF5A6EEF5A774192DF582E43403F5A6
:1045960083E0F5AEE4F591A2AF9205C2AF75C7AA66
:1045A60075C75543A401A20592AF900729E004F010
:1045B60080BAE4F591A2AF9205C2AF75C7AA75C7D6
:1045C6005553A5FEA20592AFF591A2AF9205C2AFD3
:0D45D60075C7AA75C755539FFEA20592AF89
:0145E30022B5
:1051960090071EEEF0A3EFF0A3EBF0A3EAF0A3E96D
:0151A600F018
:1051A70090071EE0FCA3E0FDAE047807CEC313CE44
:1051B70013D8F9FB900723E0FEA3E02DFFEC3EFE9A
:1051C700EF7807CEC313CE13D8F9900725F09007D1
:1051D70025E06B605690071EE0FEA3E0FFA3E0FB0F
:1051E700A3E0FAA3E0F99005DA7480F01233FDAD7D
:1051F70007ED90071FE02FF090071EE03400F0ED59
:10520700900721E48FF01210E0EDC3900724E09F90
:10521700F0900723E09400F090071EE0FEA3E078EB
:1052270007CEC313CE13D8F9FB80A3900723E0FC66
:10523700A3E0FD4C601990071EE0FEA3E0FFA3E08A
:0F524700FBA3E0FAA3E0F99005DAEDF01233FDD6
:015256002235
:105FCE009006F7EEF0A3EFF0A3EBF0A3EAF0A3E94F
:015FDE00F0D2
:105FDF00E49006FEF0A3F09006FCE0FEA3E0FFA322
:105FEF00E0FCA3E0FDC39FEC9E503B9006F8E02D34
:105FFF00FF9006F7E03C8F82F583E493FF9006F95C
:10600F00E0FBA3E0FAA3E0F99006FEE0A3E0F5823F
:10601F008C83EF1210579006FFE004F07006900685
:06602F00FEE004F080B168
:016035002248
:1033FD009005D5EEF0A3EFF0A3EBF0A3EAF0A3E96F
:01340D00F0CE
:10340E00E4F591A2AF9205C2AF75C7AA75C7554331
:10341E009F01A20592AFF591A2AF9205C2AF75C7FB
:10342E00AA75C75543A501A20592AF9005D5E0FE3A
:10343E00A3E0FF547FFD9005DCF0C374809DFD90EA
:10344E0005DBF09005DAE0D39D4006A3E09005DAA7
:10345E00F09005DDEEF0A3EFF0E49005DBF09005C3
:10346E00DAE0FFA3E0FEC39F501B9005DDE0FCA356
:10347E00E02EF582E43CF583E493F470089005DBCE
:10348E00E004F080D99005DBE06F600302354475EF
:10349E00AF219005D5E0FEA3E0F5A6EEF5A7E490EA
:1034AE0005DBF09005DAE0FFA3E0FEC39F503590F8
:1034BE0005D7E0FBA3E0FAA3E0F98E827583001234
:1034CE000FF6F5AEE4F591A2AF9205C2AF75C7AA9D
:1034DE0075C75543A401A20592AF05A69005DBE082
:1034EE0004F080BFE49005DBF09005DAE0FFA3E086
:1034FE00FEC39F502F9005D7E0FBA3E0FAA3E0F99F
:10350E008E82758300120FF6FF9005DDE0FCA3E0BE
:10351E002EF582E43CF583E493B507089005DBE0D5
:10352E0004F080C59005DAE0FFA3E06F7003023669
:10353E008480030236849005D5E0FFA3E05480908A
:10354E0005DDCFF0A3EFF0E49005DBF09005DBE0B6
:10355E00C39480748094805027E0FF9005DDE0FCDA
:10356E00A3E02FF582E43CF583E493FE74DF2FF5A0
:10357E0082E43405F583EEF09005DBE004F080CCB8
:10358E00E49005DBF09005DAE0FFA3E0C39F503135
:10359E009005D7E0FBA3E0FAA3E0F99005DBE0FF8E
:1035AE00F582758300120FF6FE9005DCE02F24DF06
:1035BE00F582E43405F583EEF09005DBE004F0804F
:1035CE00C49005D5E0FEA3E05480F5A6EEF5A775F0
:1035DE00AF2275AEFFE4F591A2AF9205C2AF75C7EB
:1035EE00AA75C75543A401A20592AF75AF219005E8
:1035FE00DBF09005DBE0FFC3948074809480502D47
:10360E0074DF2FF582E43405F583E0F5AEE4F59131
:10361E00A2AF9205C2AF75C7AA75C75543A401A242
:10362E000592AF05A69005DBE004F080C5E4900599
:10363E00DBF09005DBE0FF7E00C394807480948005
:10364E00502BE0FD9005DDE0FAA3E02DF582E43A83
:10365E00F583E493FC74DF2DF582E43405F583E005
:10366E00FDECB505089005DBE004F080C5EF648045
:10367E004E60030235CFE4F591A2AF9205C2AF754D
:10368E00C7AA75C755539FFEA20592AF9005DAE003
:01369E00FF2C
:01369F002208
:106611009006F2EFF0A3EDF0A3EBF0759103126F8A
:106621001CE4FF126C089006F2E014600B04700E7B
:1066310075910353F9BF800675910343F94053F9EE
:10664100C09006F5E042F953F9F3A3E042F9900650
:0B665100F4E0F5F19006F3E0F5FF2205
:10003E00759103EF54C042FFEF24C0602C24C060C2
:10004E002814600714600924417021AF058FFD222A
:10005E0043FF80759103A2AF9205C2AF75C7AA7513
:0D006E00C75543F402A20592AFE4F5FD2250
:106BE800759103EF24FE600B04700E75910353FA40
:106BF800EF800675910343FA1053FAF8ED42FA2232
:0F6E5800759103ED42FEEF33333354F842FE22BF
:106B0400759103EF25E025E04D4EFE75C7AA75C7C4
:106B140055F5F4EBFE75C7AA75C7558EF5EAFE75F3
:0A6B2400C7AA75C7558EE943F901B1
:016B2E002244
:106C0800EF60047E3C8002E4FE759103E4FFEFC36D
:0F6C180094207480948050078FFB8EFC0F80EFC8
:016C2700224A
:106C2800EF601324FD600F1460042403700E759147
:106C38000343FA08800675910353FAF7E4F59122A5
:106B5800759103AE058EFBEB600EA80774010880E3
:106B680002C333D8FC42FC22A8077401088002C380
:076B780033D8FCF452FC22AB
:0A6EA60075910343F980E4F5912291
:076F1C0075910353F97F2278
:10621C00E4F591A2AF9205C2AF75C7AA75C75543F5
:10622C009720A20592AFE596542060FAE4F591A26E
:10623C00AF9205C2AF75C7AA75C7555396FBA20599
:10624C0092AFF591A2AF9205C2AF75C7AA75C755AB
:10625C005396FDA20592AFA2AF9205C2AF75C7AA25
:0C626C0075C755759734A20592AF00224B
:104AD700EF14604C14606C147003024B6B1470037A
:104AE700024BAC24046003024BF67F021253167F7D
:104AF700021264D3E4FF125316E4FF1264D3E5975E
:104B070054016401700312621CE4F591A2AF92058F
:104B1700C2AF75C7AA75C7555397DFA20592AF22D3
:104B27007F021253167F021264D37F011253167F3E
:104B3700011264D3E597540164016003024BF61236
:104B4700621C227F021253167F021264D3E4F5918E
:104B5700A2AF9205C2AF75C7AA75C75553977FA273
:104B67000592AF227F031253167F031264D3E59792
:104B770054016401700312621CE4F591A2AF92051F
:104B8700C2AF75C7AA75C7555397DFA20592AFF590
:104B970091A2AF9205C2AF75C7AA75C75553977F44
:104BA700A20592AF227F021253167F021264D37FAF
:104BB700041253167F041264D3E5975401640170FD
:104BC7000312621CE4F591A2AF9205C2AF75C7AAA2
:104BD70075C7555397DFA20592AFF591A2AF92051E
:104BE700C2AF75C7AA75C75553977FA20592AF2263
:10531600EF1460371460551460731470030253B4AD
:10532600240460030253D2E4F591A2AF9205C2AF02
:1053360075C7AA75C755439780A20592AFE59644EF
:105346007F647F60030253D280F322E4F591A2AF1B
:105356009205C2AF75C7AA75C755439740A2059275
:10536600AFE59644BF64BF706380F622E4F591A270
:10537600AF9205C2AF75C7AA75C755439720A20558
:1053860092AFE59644DF64DF704280F622E4F59141
:10539600A2AF9205C2AF75C7AA75C755439710A2AB
:1053A6000592AFE59644EF64EF702180F622E4F5AE
:1053B60091A2AF9205C2AF75C7AA75C755439708A4
:0D53C600A20592AFE59644F764F760F82267
:105ACC00EF14602414603814604C1460602404706B
:105ADC0072E4F591A2AF9205C2AF75C7AA75C7550E
:105AEC0053977FA20592AF22E4F591A2AF9205C223
:105AFC00AF75C7AA75C7555397BFA20592AF22E4DD
:105B0C00F591A2AF9205C2AF75C7AA75C755539749
:105B1C00DFA20592AF22E4F591A2AF9205C2AF7558
:105B2C00C7AA75C7555397EFA20592AF22E4F5911A
:105B3C00A2AF9205C2AF75C7AA75C7555397F7A206
:045B4C000592AF22ED
:1064D300A2AF9205C2AFEF146018146020146028B5
:1064E3001460302404703575C7AA75C755439606E2
:1064F300802A75C7AA75C755439607801F75C7AA13
:1065030075C7555396F8801475C7AA75C755439632
:1065130004800975C7AA75C755439602A20592AFB1
:016523002255
:106D7900E4F591A2AF9205C2AF75C7AA75C755438D
:076D89009F80A20592AF22DA
:0300000002588A19
:10588A00787FE4F6D8FD9000007FFF7E10E4F0A355
:0A589A00DFFCDEFA7581200258DF02
:101E330060A204C50F6E0F320EF50EB60E770E3686
:101E43000DF40DB20D6F0D2B0CE60CA10C5C0C16F2
:101E53000BD00B8A0B440AFE0AB90A740A2F09EB4A
:101E630009A70963092108E0089F0860082107E31F
:101E730007A7076B073106F806C0068A0654062132
:101E830005EE05BD058D055E0530050404D904B0D6
:101E930004870460043A041603F203D003AD038EEF
:101EA300036F03500334031702FC02E102C802AFBD
:101EB30002980281026B02570242022E021B0209A0
:101EC30001F701E601D601C601B601A8019A018C0A
:101ED300017F017201654204C300004104BE004159
:0F1EE30004BF004104C0004104C1004104C2001B
:1060360075910253F20F43F21075910143B5025365
:10604600B6FD759101E4F5CE43CE10F59153A1F05E
:1060560043A10443E1017D047F01FE122BB17D07BC
:106066007F03126CFB7B027D017F01124E1BE4F560
:106076009153A17F7B017D027F05124FEE75910141
:1060860053B5EF53B6EFE4F59143B10290059B0487
:07609600F0E49005D1F022B7
:105E8E00E4F59153A17FF59143A140E5A130E7FBE5
:105E9E00AFC3EF75F010A4FFAEF0ADC2E5F0EF4D5D
:105EAE00FFEE3395E0FDFC90073112124A90073158
:105EBE00E0A3E0A3E0FEA3E0FF900595E025E0243B
:105ECE0071F582E43405F583EEF0A3EFF0900595BD
:105EDE00E004F0900731E0FCA3E0FDA3E0FEA3E0B8
:0C5EEE00FFE4F59153A17FF59153A1BF93
:015EFA002285
:104D0A00EF64046003024D9575910253F20F43F26A
:104D1A001075910143B50253B6FD759101F5CE4365
:104D2A00CE10F59153A1F043A10443E101F591534B
:104D3A00A17FF59143A140E5A130E7FBAFC3EF7531
:104D4A00F010A4FFAEF0ADC2E5F0EF4DFFEE3395E3
:104D5A00E0FDFC9006F412124A9006F4E0A3E0A3E8
:104D6A00E0FEA3E0FF900595E025E02471F582E4DA
:104D7A003405F583EEF0A3EFF0900595E004F0E436
:104D8A00F59153A17FF59153A1BF22EF6003024E23
:104D9A001A75910253F40F43F41075910143B5202B
:104DAA0053B6DF759101F5CE43CE01F59153A1F0CB
:104DBA0043E101F59153A17FF59143A140E5A1306B
:104DCA00E7FBAFC3EF75F010A4FFAEF0ADC2E5F09C
:104DDA00EF4DFFEE3395E0FDFC9006F412124A9077
:104DEA0006F4E0A3E0A3E0FEA3E0FF9005CCE025F3
:104DFA00E024A8F582E43405F583EEF0A3EFF09001
:104E0A0005CCE004F0E4F59153A17FF59153A1BFDD
:014E1A002275
:10198900EF7003021C3F24FC6003021E247F041233
:101999004D0A900595E0C394127480948050030217
:1019A9001E24E4F0900571E0FFA3E0900567CFF0F5
:1019B900A3EFF0900571E0FFA3E0900569CFF0A3D4
:1019C900EFF0E4A3F0A3F09006F204F09006F2E041
:1019D900FFC39412748094805051EF25E02471F56F
:1019E90082E43405F583E0FEA3E0FFC390056AE0D5
:1019F9009F900569E09E5005EEF0A3EFF09006F286
:101A0900E025E02471F582E43405F583E0FEA3E0E6
:101A1900FFD3900568E09F900567E09E4005EEF0D2
:101A2900A3EFF09006F2E004F080A1E49006F2F052
:101A39009006F2E0FFC39412748094805025EF253C
:101A4900E02471F582E43405F583E0FEA3E0FF901C
:101A5900056CE02FF090056BE03EF09006F2E00493
:101A6900F080CD900567E0FEA3E0FFC390056CE030
:101A79009FFF90056BE09EFE900569E0FCA3E0FDE9
:101A8900C3EF9DFFEE9CA3F0A3EFF090056BE0C4BC
:101A9900F854F0C868FEA3E0C4540F48FF90056BE2
:101AA900EEF0A3EFF0A3EEF0A3EFF0A3E0FCA3E0C8
:101AB900FDE4120E2D7BCD7ACC79CC783D120C82C7
:101AC900C004C005C006C00790056BE0FCA3E0FD9B
:101AD900E4120E2D7466FBFAF9783F120C82D003DA
:101AE900D002D001D000120B91120E6690056DEE56
:101AF900F0A3EFF0A3EEF0A3EFF0E49006F2F0907C
:101B090006F2E0FFC39450748094804003021E24BF
:101B1900EF25E024C5F582E43404F583E0FEA3E073
:101B2900FF90056DE0FCA3E0FDD39FEC9E4003020E
:101B39001C369006F2E0FF25E024C7F582E4340460
:101B4900F583E0FAA3E0FBD3ED9BEC9A5003021C6A
:101B590036EF94147480948050649006F2E0F9256D
:101B6900E024C5F582E43404F583E0FAA3E0FBC37D
:101B79009DFFEA9CFE7C007D0A121079E925E0248C
:101B8900C7F582E43404F583E0FCA3E0FDC3EB9DD3
:101B9900FDEA9CFC12108BAA06AB079006F2E0FF47
:101BA900C374139FFFE49400FE7C007D0A12107930
:101BB900EF2BFFEE3A900596F0A3EFF0806F9006B9
:101BC900F2E0F925E024C5F582E43404F583E0FA6E
:101BD900A3E0FB90056DE0FEA3E0FFC3EB9FFFEAE6
:101BE9009EFE7C007D0A121079E925E024C7F58262
:101BF900E43404F583E0FCA3E0FDC3EB9DFDEA9C1E
:101C0900FC12108BAA06AB079006F2E024ECFFE465
:101C190034FFFE7C007D0A121079EF2BFFEE3A901B
:101C29000596F0A3EFF090059AE9F0F0229006F2FC
:061C3900E004F0021B08AC
:101C3F00E4FF124D0A9005CCE0C394127480948097
:101C4F005003021E24E4F09005A8E0FFA3E09005E6
:101C5F009CCFF0A3EFF09005A8E0FFA3E090059EC6
:101C6F00CFF0A3EFF0A3121256000000009006F37E
:101C7F007401F09006F3E0FFC394127480948050C7
:101C8F0051EF25E024A8F582E43405F583E0FEA3A7
:101C9F00E0FFC390059FE09F90059EE09E5005EEEC
:101CAF00F0A3EFF09006F3E025E024A8F582E434EA
:101CBF0005F583E0FEA3E0FFD390059DE09F90051F
:101CCF009CE09E4005EEF0A3EFF09006F3E004F0E9
:101CDF0080A1E49006F3F09006F3E0C394127480B1
:101CEF009480503F9005A0E0F8A3E0F9A3E0FAA399
:101CFF00E0FB9006F3E025E024A8F582E43405F537
:101D0F0083E0FEA3E0FFE4FCFDEB2FFFEA3EFEEDD8
:101D1F0039FDEC38FC9005A012124A9006F3E0044E
:101D2F00F080B490059CE0FEA3E0FFFBAA06E490D0
:101D3F0005A0E0FCA3E0FDA3E0FEA3E0C39BFFEE44
:101D4F009AFEED9400FDEC9400FCC006C0079005D0
:101D5F009EE0FEA3E0FFFBAA06E4D007D006C3EF88
:101D6F009BFFEE9AFEED9400FDEC9400FCA3121283
:101D7F004A9005A0E0FCA3E0FDA3E0FEA3E0FF78FE
:101D8F00041212379005A012124A9005A0E0FCA38E
:101D9F00E0FDA3E0FEA3E0FFE4120E287466FBFA59
:101DAF00F9783F120C82C004C005C006C007900529
:101DBF00A6E0FCA3E0FDE4120E2D7BCD7ACC79CC0E
:101DCF00783D120C82D003D002D001D000120B91BB
:101DDF00120E669005A012124A9005A0E0A3E0A390
:101DEF00E0FFA3E09005A6CFF0A3EFF0E4FF7E1491
:101DFF00FDFC9005A0E0F8A3E0F9A3E0FAA3E0FB57
:101E0F0012110CE47BFF7A0FF9F81211979005A4C9
:051E1F00EEF0A3EFF05E
:011E2400229B
:1012D90020A4030214867B017D167F01126B587BC3
:1012E900017D177F03126B58D39005A5E0940490F4
:1012F90005A4E09410402C9005D47401F0FB7D16F0
:10130900E4FF126B587B017D17E4FF126B587B01D8
:101319007D177F01126B587B017D177F02126B5875
:101329000214299005A4E0FEA3E0FFC39404EE94FF
:101339001040030214299005D4E0FD60030214292A
:10134900C3EF943CEE940F4003021429ED6401604D
:10135900030214299004C4E004F070069004C3E069
:1013690004F09004C3E07004A3E0640170267B01DB
:101379007D16FF126B587B017D17E4FF126B58E451
:10138900FB7D177F02126B58E4FB7D177F01126BFF
:10139900580214299004C3E07004A3E06402702584
:1013A9007B017D16FF126B587B017D17E4FF126BE1
:1013B900587B017D177F01126B58E4FB7D177F0273
:1013C900126B58805B9004C3E07004A3E06403705F
:1013D900257B017D16FF126B587B017D17E4FF12F7
:1013E9006B587B017D177F01126B587B017D177F3D
:1013F90002126B58802A7B017D16E4FF126B58E4B8
:10140900FB7D177F02126B58E4FB7D177F01126B7E
:1014190058E4FB7D17FF126B58E49004C3F0A3F066
:101429009005A4E0FEA3E0FFC39461EE940E50067C
:10143900E49005D3F022C3EF949FEE940E500790E9
:1014490005D37414F022C3EF94F0EE940E50079074
:1014590005D37428F022C3EF948DEE940F500790B2
:1014690005D3743CF022C3EF9436EE9410500790E4
:1014790005D37450F0229005D37464F02230A4038C
:03148900021988BD
:10148C00E49005D4F0FB7D167F01126B58D39005C8
:10149C00A5E0943C9005A4E0940F500302157190C4
:1014AC0004BEE070349005D37464F07B017D16E4C7
:1014BC00FF126B587B017D177F02126B587B017DED
:1014CC00177F03126B587B017D177F01126B587BC2
:1014DC00017D17E4FF126B58229004BEE06401708A
:1014EC0050D39005A5E094509005A4E0940F404192
:1014FC009005D37464F07B017D16E4FF126B587B6E
:10150C00017D177F02126B587B017D177F03126BD5
:10151C00587B017D177F01126B587B017D17E4FF0F
:10152C00126B58E49004BEF0A3F0A3F0A3F0A3F068
:10153C00229005D37450F07B017D16E4FF126B589A
:10154C00E4FB7D177F02126B587B017D177F031222
:10155C006B587B017D177F01126B587B017D17E463
:10156C00FF126B5822D39005A5E094799005A4E066
:10157C00940E500302164B9004BE7401F0A3E0705D
:10158C00349005D37450F07B017D16E4FF126B5838
:10159C00E4FB7D177F02126B587B017D177F0312D2
:1015AC006B587B017D177F01126B587B017D17E413
:1015BC00FF126B58229004BFE06401704ED390056B
:1015CC00A5E0948D9005A4E0940E403F9005D37453
:1015DC0050F07B017D16E4FF126B58E4FB7D177F06
:1015EC0002126B587B017D177F03126B587B017DB8
:1015FC00177F01126B587B017D17E4FF126B58E4C7
:10160C009004BFF0A3F0A3F0A3F0229005D3743C98
:10161C00F07B017D16E4FF126B58E4FB7D177F0213
:10162C00126B587B017D177F03126B58E4FB7D17FF
:10163C007F01126B587B017D17E4FF126B5822D38C
:10164C009005A5E094109005A4E0940E50030217A9
:10165C00229004BF7401F0A3E070349005D3743C65
:10166C00F07B017D16E4FF126B58E4FB7D177F02C3
:10167C00126B587B017D177F03126B58E4FB7D17AF
:10168C007F01126B587B017D17E4FF126B5822907F
:10169C0004C0E06401704CD39005A5E0941A900549
:1016AC00A4E0940E403D9005D3743CF07B017D1674
:1016BC00E4FF126B58E4FB7D177F02126B587B0121
:1016CC007D177F03126B58E4FB7D177F01126B585B
:1016DC007B017D17E4FF126B58E49004C0F0A3F07B
:1016EC00A3F0229005D37428F07B017D16E4FF1241
:1016FC006B58E4FB7D177F02126B587B017D177FC3
:10170C0003126B58E4FB7D177F01126B58E4FB7DD1
:10171C0017FF126B5822D39005A5E094C89005A42E
:10172C00E0940D50030217F49004C07401F0A3E090
:10173C0070339005D37428F07B017D16E4FF126B97
:10174C0058E4FB7D177F02126B587B017D177F03DA
:10175C00126B58E4FB7D177F01126B58E4FB7D176D
:10176C00FF126B58229004C1E064017049D39005BC
:10177C00A5E094DE9005A4E0940D403A9005D37456
:10178C0028F07B017D16E4FF126B58E4FB7D177F7C
:10179C0002126B587B017D177F03126B58E4FB7DA3
:1017AC00177F01126B58E4FB7D17FF126B58E49006
:1017BC0004C1F0A3F0229005D37414F0E4FB7D1661
:1017CC00FF126B58E4FB7D177F02126B587B017D77
:1017DC00177F03126B58E4FB7D177F01126B58E4E3
:1017EC00FB7D17FF126B5822D39005A5E094309027
:1017FC0005A4E0940C500302190B9004C17401F081
:10180C00A3E070329005D37414F0E4FB7D16FF1244
:10181C006B58E4FB7D177F02126B587B017D177FA1
:10182C0003126B58E4FB7D177F01126B58E4FB7DB0
:10183C0017FF126B58229004C2E064017046D390DB
:10184C0005A5E094449005A4E0940C40379005D392
:10185C007414F0E4FB7D16FF126B58E4FB7D177FCC
:10186C0002126B587B017D177F03126B58E4FB7DD2
:10187C00177F01126B58E4FB7D17FF126B58E49035
:10188C0004C2F0229004C4E004F070069004C3E09B
:10189C0004F0E49005D3F0FB7D16FF126B58E4FBCB
:1018AC007D177F02126B58E4FB7D177F01126B587A
:1018BC00E4FB7D17FF126B589004C3E07004A3E0A7
:1018CC00640170137B017D167F01126B587B017DC7
:1018DC00177F03126B58229004C3E07004A3E064DA
:1018EC00026003021988FB7D167F01126B58E4FB22
:1018FC007D177F03126B58E49004C3F0A3F0229081
:10190C0004C27401F09004C4E004F070069004C3A7
:10191C00E004F0E49005D3F0FB7D16FF126B58E465
:10192C00FB7D177F02126B58E4FB7D177F01126B56
:10193C0058E4FB7D17FF126B589004C3E07004A3AE
:10194C00E0640170137B017D167F01126B587B01E3
:10195C007D177F03126B58229004C3E07004A3E040
:10196C0064027018FB7D167F01126B58E4FB7D1727
:0C197C007F03126B58E49004C3F0A3F04A
:01198800223C
:106BA40090059BE064017012900596E0FFA3E0A3BA
:106BB400CFF0A3EFF0E490059BF0900596E0FEA3E0
:036BC400E0FF22CD
:096EB000900598E0FEA3E0FF222A
:051EF20042065F000044
:10642D0090066B7411F0A37401F0A3F090066CE06C
:10643D00FF90066BE02F04F40490066EF090066B4F
:10644D00E0900661F090066CE0900662F090066DAB
:10645D00E0900663F090066EE0900664F09006936F
:10646D00E070107B017A06796190066CE02403FDE3
:04647D0012672C2254
:1063800090066B7411F0A37401F0A3741EF09006D4
:106390006CE0FF90066BE02F241EF40490066EF074
:1063A00090066BE0900661F090066CE0900662F05B
:1063B00090066DE0900663F090066EE0900664F043
:1063C000900693E070107B017A06796190066CE08C
:0763D0002403FD12672C22DB
:03007B00025744E5
:10574400C0E0C0F0C083C082C0D075D000C000C02B
:1057540001C002C003C004C005C006C007C0913028
:10576400F86C900695E59AF0900693E07025900603
:1057740095E064167056FE7F0FFD7B017A06796F03
:105784001212AD900695E090066FF09006937401A6
:10579400F08039900693E064017031A3E004F0A333
:1057A400E0FF900694E0FE246FF582E43406F5836E
:1057B400EFF0900670E02402FDE433FCEE7E00B5C9
:1057C400050AEEB504069006937402F0C2F8D0916F
:1057D400D007D006D005D004D003D002D001D00029
:0B57E400D0D0D082D083D0F0D0E032D3
:10592400900693E06402705DA3E0FF126B7F900623
:1059340094E0246FF582E43406F583E06F703878E0
:105944007E7C067D017B017A06796FFE7F0F120F44
:10595400B7E4900693F0900681E0FEA3E07C002477
:1059640000FFEC3E900691F0A3EFF0E4900694F073
:1059740090065FF0A3F022E4900693F0A3F0900663
:105984005FF0A3F022900693E0602A900660E004A2
:10599400F0700690065FE004F0D3900660E094E8AF
:1059A40090065FE09403400DE4900693F0A3F0901A
:0559B400065FF0A3F006
:0159B90022CB
:026B7F00A90764
:106B8100E4FFFEFDFCEDC3995013746F2DF582E413
:106B91003406F583E02FFFE43EFE0D80E8EFF404B8
:026BA100FCFFF7
:016BA30022CF
:055697009006FEEFF09B
:10569C0090049EE0FB7A007C037DE8FF7E001210F4
:1056AC008B900701EFF07C037DE8AF037E001210B6
:1056BC008B7E007F64CFCDCFCECCCE12108B9007DB
:1056CC0000EFF090049EE0FF75F06484E5F075F057
:1056DC000A849006FFF0EF75F00A84AFF0AD07E492
:1056EC00FB7F041245E4C3900703E0940A90070281
:1056FC00E09400400C9006FFE0FDE4FB7F031245B4
:10570C00E4C3900703E09464900702E09400400C1B
:10571C00900700E0FDE4FB7F021245E4C390070311
:10572C00E094E8900702E09403400C900701E0FD40
:07573C00E4FB7F011245E4CC
:015743002243
:096EB900900691E0FEA3E0FF2227
:106278009006F7EBF0A3EAF0A3E9F0A3ECF0A3EDA6
:01628800F025
:10628900E4FF7EFF9006FA74FFF5F01210F645F070
:1062990060339006F7E0FBA3E475F0011210F6A94C
:1062A900F0FA120FDD6EFEE4FFEFC39408748094D8
:1062B9008050D1EE30E70725E06431FE8004EE25F9
:0762C900E0FE0F80E4AF06C8
:0162D00022AB
:10487400E4FDEF7807CEC313CE13D8F97807C3331A
:10488400CE33CED8F9FF9006FBEEF0A3EFF0E4FDB3
:104894009006FAE0FFEDC39F502DEDC39F5019120F
:1048A4000FDDFF74192DF582E43403F583EFF07402
:1048B4000129F9E43AFA800C74192DF582E43403E1
:1048C400F583E4F00D80C99006FBE0FEA3E0F5A6B5
:1048D400EEF5A775AEFFE4F591A2AF9205C2AF75F0
:1048E400C7AA75C755439F01A20592AFF591A2AF20
:1048F4009205C2AF75C7AA75C75543A501A2059213
:10490400AF75AF22F591A2AF9205C2AF75C7AA7574
:10491400C75543A401A20592AFF591A2AF9205C277
:10492400AF75C7AA75C755439F01A20592AFF5910C
:10493400A2AF9205C2AF75C7AA75C75543A501A218
:104944000592AF75AF21FD9006FAE0FFEDC39F50CD
:1049540031A3E0FEA3E02DF5A6EEF5A774192DF51D
:1049640082E43403F583E0F5AEE4F591A2AF920559
:10497400C2AF75C7AA75C75543A401A20592AF0D6E
:1049840080C5E4F591A2AF9205C2AF75C7AA75C7F9
:104994005553A5FEA20592AFF591A2AF9205C2AF01
:0D49A40075C7AA75C755539FFEA20592AFB7
:0149B10022E3
:0B42EE009006F2EDF0EF600302446A5E
:1042F9009006F2E06003024381900200E0FF7E0035
:10430900700604F0A3F0800CEF64014E7006900271
:1043190000F0A3F07B017A0279017D057C0012622D
:1043290078900206EFF0C2AF7B017A02790190061C
:10433900FA7406F07F807EFF1248747A027907903A
:1043490006FCE4F0A37406F07F807EFF125FCE7B4B
:10435900017A0279077D057C0012627890020CE0EF
:104369006F60137B017A0279019006FA7406F07F77
:10437900807EFF124874D2AF9006F2E064016003B8
:1043890002446A126EB9EEFFC007126F5F740D2FF7
:10439900F582E43402F583D0E0F0126EB9C0071259
:1043A9006F5F740E2FF582E43402F583D0E0F012CA
:1043B9006F65900289EFF0126F5F90028AEFF07BD0
:1043C900017A02790D7D7E1264819006F3EEF0A3E5
:1043D900EFF09006F3E0FCA3E0FDEC90028BF0A374
:1043E900EDF0C2AF900200E075F080A42480FFE5F3
:1043F900F034FEFE7B017A02790D9006FA7480F0A2
:10440900124874900200E075F080A42480FFE5F062
:1044190034FEFE7A02798D9006FCE4F0A37480F0F4
:10442900125FCE7B017A02798D7D7E1264819003C1
:1044390017EEF0A3EFF090030CE06F7001EE601F30
:10444900900200E075F080A42480FFE5F034FEFEC0
:104459007B017A02790D9006FA7480F0124874D2C1
:01446900AFA3
:01446A00222F
:102E8B00C2AF7B017A0279079006FCE4F0A37406CB
:102E9B00F07F807EFF125FCE7B017A0279077D0582
:102EAB007C0012627890020CE06F607B7B017A02EF
:102EBB0079079006FCE4F0A37406F07F807EFF1286
:102ECB005FCE7B017A0279077D057C0012627890D8
:102EDB00020CE06F6017E4900201F0A3F0A3F0A3E3
:102EEB00F0A3F0900201E0900200F08072900207D4
:102EFB00E0900201F0900208E0900202F0900209CB
:102F0B00E0900203F090020AE0900204F090020BB2
:102F1B00E0900205F090020CE0900206F0900201A6
:102F2B00E0900200F08038900207E0900201F090F0
:102F3B000208E0900202F0900209E0900203F09088
:102F4B00020AE0900204F090020BE0900205F09070
:102F5B00020CE0900206F0900201E0900200F0906B
:102F6B000200E075F080A42480FFE5F034FEFE7BC8
:102F7B00017A02798D9006FCE4F0A37480F0125F65
:102F8B00CE7B017A02798D7D7E126481900317EEE0
:102F9B00F0A3EFF090030BE0FF900317E4F0A3EF27
:102FAB00F0E0F8E4F0E8900317F090030CE0FF90EA
:102FBB000318E02FF0900317E03400F07B017A0246
:102FCB00798D7D7E126481900317E06E7003A3E010
:102FDB006F70030230DC900200E075F080A4248057
:102FEB00FFE5F034FEFE7B017A02798D9006FCE45E
:102FFB00F0A37480F0125FCE90030BE0FF900317E9
:10300B00E4F0A3EFF0E0F8E4F0E8900317F090039E
:10301B000CE0FF900318E02FF0900317E03400F062
:10302B007B017A02798D7D7E126481900317E06EAD
:10303B007003A3E06F602AE49006F6F09006F6E0CA
:10304B00FFC3948074809480400302314A740D2F27
:10305B00F582E43402F583E4F09006F6E004F080A8
:10306B00DBE49006F6F09006F6E0C394807480944F
:10307B00805021E0FF248DF582E43402F583E0FEDD
:10308B00740D2FF582E43402F583EEF09006F6E032
:10309B0004F080D2900289E0FF9006F2F090028A51
:1030AB00E09006F3F0E0FE240DF582E43402F583A4
:1030BB00E09006F4F0740E2EF582E43402F583E012
:1030CB009006F5F0126F6B9006F3E0FF126F7180B4
:1030DB006EE49006F6F09006F6E0C394807480944C
:1030EB00805021E0FF248DF582E43402F583E0FE6D
:1030FB00740D2FF582E43402F583EEF09006F6E0C2
:10310B0004F080D2900289E0FF9006F2F090028AE0
:10311B00E09006F3F0E0FE240DF582E43402F58333
:10312B00E09006F4F0740E2EF582E43402F583E0A1
:10313B009006F5F0126F6B9006F3E0FF126F71D2F1
:01314B00AFD4
:01314C002260
:105CC300E4FDEDC3946074809480505A740D2DF5F7
:105CD30082E43402F583E0FF9006F4E4F0A3EFF0EE
:105CE300E0F8E4F0E89006F4F0740E2DF582E43465
:105CF30002F583E0FF9006F5E02FF09006F4E03420
:105D030000F0E0FEA3E0FFC39006F3E09F9006F2ED
:105D1300E09E500E9006F4E0A3E09006F2EEF0A3AE
:105D2300EFF00D0D809C9006F2E0FEA3E0FFE4FC93
:075D3300FD90030F12124A5C
:015D3A002246
:103E6300E49006F3F0A3F0A3F0A3F0A3121256001C
:103E7300000000900289E06003023F459006F2F0E3
:103E830090028AE02402FFE433FE9006F2E0C39F2F
:103E9300EE6480F8748098506AE0FD240DF582E4A6
:103EA3003402F583E0FF9006F5E4F0A3EFF0E0F8C9
:103EB300E4F0E89006F5F0740E2DF582E43402F593
:103EC30083E0FF9006F6E02FF09006F5E03400F073
:103ED3009006F7E0F8A3E0F9A3E0FAA3E0FB90066D
:103EE300F5E0FEA3E0FFE4FCFDEB2FFFEA3EFEED71
:103EF30039FDEC38FCA312124A9006F2E02402F0DA
:103F0300023E83E47F02FEFDFC9006F7E0F8A3E0A7
:103F1300F9A3E0FAA3E0FB12110CC006C00790025C
:103F23008AE02402FFE433FEAB07FA3395E0F9F8A5
:103F3300D007D0061211979006F3EEF0A3EFF0022C
:103F43003FDFE49006F2F09006F2E0C394607480E1
:103F530094805069E0FD240DF582E43402F583E09A
:103F6300FF9006F5E4F0A3EFF0E0F8E4F0E8900644
:103F7300F5F0740E2DF582E43402F583E0FF90062C
:103F8300F6E02FF09006F5E03400F09006F7E0F845
:103F9300A3E0F9A3E0FAA3E0FB9006F5E0FEA3E0BB
:103FA300FFE4FCFDEB2FFFEA3EFEED39FDEC38FCB0
:103FB300A312124A9006F2E02402F0808AE47B30D6
:103FC300FAF9F89006F7E0FCA3E0FDA3E0FEA3E016
:103FD300FF1211979006F3EEF0A3EFF09006F3E0D3
:0D3FE300FEA3E0FFE4FCFD90031312124A60
:013FF00022AE
:0D6E750090030FE0A3E0A3E0FEA3E0FF22E6
:0D6E8200900313E0A3E0A3E0FEA3E0FF22D5
:106AD7007591025384F75385F775910243970875AB
:106AE700910153BDBF53BEBF7591014397409006B7
:0D6AF700EB7401F0A3F09006EE7406F0229F
:1028CA007591029006E5E5A7F0E0F4FF131313549F
:1028DA0001FFF0E4F591AD07E5B1F0E0F4FEC413B1
:1028EA005402F0E02FF0E060469006DEE004F0E0EB
:1028FA00D3940574809480403B9006E5E06029906B
:10290A0006E2E064017005A304F080069006E27412
:10291A0001F0E49006E7F09006E5E0A3F0E4900603
:10292A00DEF09006E0F0800CE49006DEF08005E42C
:10293A009006DEF09006E2E064016003022BA290AA
:10294A0006DFE004F09006E6E024FE7003022A8225
:10295A00046003022BA29006E5E0FF6003022A4707
:10296A009006DFE0D394C874809480400374C9F061
:10297A009006E7E0640170569006E0E004F0E0D3C8
:10298A009464748094805003022BA2A3E0FD7C001F
:10299A00640170089006E87402F0801AED64024C33
:1029AA0070089006E87403F0800CED64034C70061E
:1029BA009006E87404F0E49006E1F09006E0F090E6
:1029CA0006E2F09006E7F09006E3F0022BA29006EA
:1029DA00DFE0FD7C00C394C874809480501D90068B
:1029EA00E3E070179006F0E070119006E704F090AB
:1029FA0006E1F0E49006DFF0022BA2C3ED94C8ECE6
:102A0A006480948050259006E3E06401701D90066E
:102A1A00F0E070179006E704F09006E1E004F0E4B5
:102A2A009006DFF09006E3F0022BA2E49006F0F0A5
:102A3A009006DFF09006E2F0A3F0022BA2EF640109
:102A4A006003022BA29006DFE0D394C874809480BE
:102A5A005003022BA29006E87405F0E49006DFF01A
:102A6A009006E3F09006E0F09006E7F09006E0F0BA
:102A7A009006F004F0022BA29006E5E0FF60030244
:102A8A002B6A9006DFE0D394C87480948040037464
:102A9A00C9F09006E7E0640670569006E0E004F09C
:102AAA00E0D39464748094805003022BA2A3E0FDC7
:102ABA007C00640170089006E87407F0801AED64DF
:102ACA00024C70089006E87408F0800CED64034C20
:102ADA0070069006E87409F0E49006E1F09006E0CA
:102AEA00F09006E2F09006E7F09006E3F0022BA2DF
:102AFA009006DFE0FD7C00C394C874809480501F68
:102B0A009006E3E070199006F0E070139006E774FF
:102B1A0006F09006E17401F0E49006DFF08079C3D4
:102B2A00ED94C8EC6480948050259006E3E064013B
:102B3A00701D9006F0E070179006E77406F0900694
:102B4A00E1E004F0E49006DFF09006E3F08049E467
:102B5A009006F0F09006DFF09006E2F0A3F08038DD
:102B6A00EF640270339006DFE0D394C874809480D7
:102B7A0040269006F0E070209006E8740AF0E4908F
:102B8A0006DFF09006E3F09006E0F09006E7F0909A
:102B9A0006E0F09006F004F09006E7E064017006A3
:062BAA009006E0E004F0DB
:012BB0002202
:103CD0001228CA9006E8E0640270589006F1E0FFEE
:103CE0007E00700404F08035EF64014E7008900689
:103CF000F17402F08027EF64024E70089006F174B0
:103D000003F08019EF64034E70089006F17404F01C
:103D1000800BEF64044E70059006F104F0126F778B
:103D2000EF64047003023E5D9006F1E0FF125C490F
:103D3000023E5D9006E8E0FF7E006403702D900671
:103D4000EFE0FD7C00700504F0023E5DED64014C87
:103D500070099006EF7402F0023E5DED64024C6063
:103D600003023E5D9006EFF0023E5DEF64044E708C
:103D700003023E5D9006E8E0FF7E006405701E9041
:103D800006EDE0FD7C00700504F0023E5DED64018F
:103D90004C6003023E5D9006EDF0023E5DEF64076D
:103DA0004E701E9006ECE0FF7E00700504F0023EAF
:103DB0005DEF64014E6003023E5D9006ECF0023E52
:103DC0005D9006E8E0FF7E006408706C9006EEE00F
:103DD000B408004003023E5D903DDFF828287302DE
:103DE0003DF7023DFF023E07023E0F023E17023E34
:103DF0001F023E27023E2F9006EE7401F0805E9077
:103E000006EE7402F080569006EE7403F0804E9039
:103E100006EE7404F080469006EE7405F0803E9045
:103E200006EE7406F080369006EE7407F0802EE4FD
:103E30009006EEF080278025EF64094E601F900603
:103E4000E8E0640A70179006EBE0FF7E007004045F
:103E5000F0800AEF64014E70049006EBF0E49006E7
:033E6000E8F02265
:066F23009006EBE0FF22E6
:066F29009006ECE0FF22DF
:066F2F009006EDE0FF22D8
:066F35009006EEE0FF22D1
:066F3B009006EFE0FF22CA
:066F41009006F1E0FF22C2
:1049B20075910253EB0F43EB5075910253EBF043A9
:1049C200EB0575910253EE0F43EE5075910253F7CA
:1049D2000F43F75075910253FCF043FC02759102AC
:1049E20053FC0F43FC2075910253E9F043E9027531
:1049F200910253E90F43E92075910253F2F043F219
:104A02000275910253F5F043F50275910253F50FC9
:104A120043F5207591025394F04394027591025329
:104A2200940F4394207591025395F043950275912A
:104A32000253950F43952075910253F6F043F60207
:104A420075910253F60F43F62075910253F7F04326
:104A5200F70275910253EDF043ED0275910253EDA9
:104A62000F43ED2075910253EEF043EE0275910271
:104A720053F10F43F12075910253F1F043F10275A6
:104A8200910253FF0F43FF2075910253FFF043FF42
:104A9200027591025392F043920275910253920F62
:104AA2004392207591025393F04393027D027F015A
:104AB200126BE89006F57420F0E4A3F07B307D01E0
:104AC2007F01126611E4FD7F4012003E126EA67F46
:054AD20001126C082236
:066F4700E4FF126C0822B9
:0745E400900704EBF0A905AC
:1045EB00E4FEFDEF14B40B00506B90460375F00323
:1045FB00A4C58325F0C5837302462402462A0246CE
:10460B003002463602463C02464202464802464EBD
:10461B0002465402465A02465E7E027D0180367E79
:10462B00047D0380307E067D18802A7E087D0780FE
:10463B00247E0B7D0A801E7E0D7D0C80187E1E7DD8
:10464B000E80127E127D11800C7E147D1380067DF0
:10465B000A80027D11759103AF068FFBE9B40A0046
:10466B005055904674F828287302469202469702DA
:10467B00469C0246A10246A60246AB0246B0024643
:10468B00B50246BA0246BF75FC0F802B75FC06803F
:10469B002675FC0B802175FC0F801C75FC068017A2
:1046AB0075FC0D801275FC0D800D75FC078008756F
:1046BB00FC0F800375FC0F759103AF058FFBE9B4FD
:1046CB000A0050559046D6F82828730246F4024645
:1046DB00F90246FE02470302470802470D02471242
:1046EB0002471702471C02472175FC0A802BE4F591
:1046FB00FC802675FC0C802175FC04801C75FC0667
:10470B00801775FC06801275FC0E800DE4F5FC809D
:10471B000875FC0E800375FC06900704E0FF800013
:01472B00226B
:0E21FB009006F3EEF0A3EFF0A3ECF0A3EDF0EE
:10220900900736E004F07006900735E004F0E4FF2B
:10221900126C08126F2FEF701C7B017D0EFF126B81
:10222900587B017D1F7F02126B587B017D1F7F0345
:10223900126B58804E126F2FEF640170469006F3AF
:10224900E0FCA3E0FDE4120E2D7B667A6679E67860
:102259003F120C82E4FBFAF97842120B91120E66D6
:102269009006F3EEF0A3EFF07B017D0EE4FF126B15
:10227900587B017D1F7F02126B587B017D1F7F01F7
:10228900126B589006F3E0FAA3E0FB7C037DE8FFAC
:10229900AE0212108B9006F8EFF07C037DE8AF03D5
:1022A900AE0212108B7E007F64CFCDCFCECCCE1282
:1022B900108B9006F7EFF09006F3E0FEA3E0FF7CA9
:1022C900007D6412108B7E007F0ACFCDCFCECCCE9D
:1022D90012108BAA079006F3E0FEA3E0FF7C007DB5
:1022E9000A12108BAB05A3E0FEA3E0FF7C007D641E
:1022F90012108B9006FBEFF09006F5E0FEA3E0FFCD
:102309007C007D6412108B7E007F0ACFCDCFCECCAE
:10231900CE12108B9006FAEFF09006F5E0FEA3E0DE
:10232900FF7C007D0A12108B9006F9EDF0AF03AD2A
:10233900077B0C7F071245E4AF02AD077F06124504
:10234900E4C39006F4E094649006F3E09400400A34
:102359009006F7E0FD7F051245E4C39006F4E0948A
:10236900E89006F3E0940340097B017D0AE4FF123B
:102379006B587B017D0EE4FF126B589006F9E0FD66
:10238900E4FB7F091245E49006FAE0FDE47F0812B8
:1023990045E4C39006F6E094649006F5E0940040A5
:1023A900080B7D11E4FF126B587B017D13E4FF12CA
:1023B9006B589006F3E0FEA3E0FFD394B4EE9400CB
:1023C9004032D3EF9418EE94015029A3E0FEA3E024
:1023D900FFC39490EE9401401BD3EF94BCEE94029A
:1023E90050127B017D09E4FF126B587B017D157F3B
:1023F90001126B589006F3E0FEA3E0FFD39478EE48
:1024090094004009D3EF94B4EE9400403DD3EF9487
:1024190018EE94014009D3EF9440EE9401402B90BB
:1024290006F5E0FEA3E0FFC394FAEE94004009D359
:10243900EF9486EE94014012D3EF94C6EE940240D5
:102449001BD3EF9452EE940350127B017D10E4FFED
:10245900126B587B017D157F01126B589006F3E0D2
:10246900FEA3E0FFC39478EE94004020D3EF9420BC
:10247900EE94005017A3E0FEA3E0FFC394FAEE9494
:10248900004009D3EF9452EE940340127B017D156D
:10249900E4FF126B587B017D157F01126B58900781
:1024A90036E004F07006900735E004F0900735E057
:1024B9007004A3E0640270097B01FDFF126B588070
:1024C90047900735E07004A3E06404700A7B01FDBE
:1024D9007F01126B588031900735E07004A3E064E6
:1024E90006700A7B01FD7F02126B58801B9007352D
:1024F900E07004A3E06408700F7B01FD7F03126B99
:1025090058E4900735F0A3F0126F3B125697126FFB
:1025190023EF7009FB7D07FF126B588010126F23A0
:10252900EF640170087B017D07FF126B58126F2958
:10253900EF7009FB7D18FF126B588010126F29EF9D
:10254900640170087B017D18FF126B587B017D01C6
:10255900E4FF126B587B017D157F02126B587B01DA
:102569007D157F03126B587B017D167F02126B5814
:0C2579007B017D167F03126B581212D9F3
:012585002233
:041EF70041073F0060
:1050C3007B017DB07F05124FEE7D087F02123B38D6
:1050D30075910253EC0F43ECC075910153B9F7433B
:1050E300BA089006F6E4F0A37432F07B567A04E42F
:1050F300FD7F02124BF775910243C4407D08E4FF24
:10510300125DB275910253FB0F43FBD075910153AE
:10511300B1DF43B2209006F61212560000045690F7
:1051230006FAE4F0A37464F0E4FBFDFF1236A07505
:10513300910253FBF043FB0D75910153B1EF43B261
:10514300109006F6121256000004569006FAE4F088
:10515300A37464F0E4FBFD7F011236A07591025342
:10516300EAF043EA0C75910153C2BF43C340900672
:10517300F6121256000004569006FAE4F0A3746483
:10518300F0E4FBFD7F051236A075910253C47F1234
:035193006F0E227A
:10682200EF24FE601414601B14602224037027E41A
:10683200F59153B14F43B12022E4F59153B14F4347
:10684200B13022E4F59153B14F43B11022E4F591F6
:0768520053B14F43B11022C6
:10553A00126F23EF640160030255D7126EB9D3EFDD
:10554A0094E8EE9403500AE4F59153B14F43B12025
:10555A0022126EB9D3EF9478EE9405500AE4F591CD
:10556A0053B14F43B13022126EB9D3EF9408EE947F
:10557A0007500AE4F59153B14F43B11022E4F59173
:10558A0053B14F43B110126F29EF7007759102534F
:10559A00C47F22126F29EF6401704390073FE00431
:1055AA00F0E0FF7E00C394327480948050077591B6
:1055BA000243C48022C3EF9464EE6480948050074F
:1055CA0075910253C47F22E490073FF022126F23A1
:0E55DA00EF700BF59153B14F75910253C47FE2
:0155E80022A0
:10314D009006F2EFF0126F159006F2E0B408004011
:10315D00030233F9903168F8282873023180023167
:10316D00D302322002326D0232BA02330A02335ACE
:10317D000233AC9006F6121256000004569006FA71
:10318D00E4F0A37464F0E4FBFDFF1236A09006F6A4
:10319D00121256000004569006FAE4F0A37464F07F
:1031AD00E4FBFD7F011236A09006F61212560000C8
:1031BD0004569006FAE4F0A37464F0E4FBFD7F0579
:1031CD001236A00233F99006F6121256000004567C
:1031DD00E49006FAF0A3F0FBFDFF1236A09006F680
:1031ED0012125600000456E49006FAF0A3F0FBFD0F
:1031FD007F011236A09006F612125600000456906A
:10320D0006FAE4F0A37464F0E4FBFD7F051236A02A
:10321D000233F99006F6121256000004569006FA83
:10322D00E4F0A37464F0E4FBFDFF1236A09006F603
:10323D0012125600000456E49006FAF0A3F0FBFDBE
:10324D007F011236A09006F612125600000456E4C5
:10325D009006FAF0A3F0FBFD7F051236A00233F9BC
:10326D009006F612125600000456E49006FAF0A3EA
:10327D00F0FBFDFF1236A09006F612125600000468
:10328D00569006FAE4F0A37464F0E4FBFD7F01129E
:10329D0036A09006F612125600000456E49006FA77
:1032AD00F0A3F0FBFD7F051236A00233F99006F670
:1032BD00121256000004569006FAE4F0A37464F05E
:1032CD00E4FBFDFF1236A09006F612125600000424
:1032DD0056E49006FAF0A3F0FBFD7F011236A090A4
:1032ED0006F6121256000004569006FAE4F0A37486
:1032FD0064F0E4FBFD7F051236A00233F99006F66B
:10330D0012125600000456E49006FAF0A3F0FBFDED
:10331D00FF1236A09006F6121256000004569006C3
:10332D00FAE4F0A37464F0E4FBFD7F011236A09083
:10333D0006F6121256000004569006FAE4F0A37435
:10334D0064F0E4FBFD7F051236A00233F99006F61A
:10335D00121256000004569006FAE4F0A37446F0DB
:10336D00E4FBFDFF1236A09006F612125600000483
:10337D00569006FAE4F0A37414F0E4FBFD7F0112FD
:10338D0036A09006F6121256000004569006FAE486
:10339D00F0A37464F0E4FBFD7F051236A0804D9020
:1033AD0006F6121256000004569006FAE4F0A374C5
:1033BD0064F0E4FBFDFF1236A09006F612125600E3
:1033CD000004569006FAE4F0A37464F0E4FBFD7F6C
:1033DD00011236A09006F612125600000456E49023
:1033ED0006FAF0A3F0FBFD7F051236A0126F0E2238
:041EFB004106DD00BF
:066F4D00E49006CDF022E5
:0100B200222B
:1061000043C02053C0F7E5C030E3FBAFBDEF6408E8
:1061100060031200B253C0DF75BCE053C0F7E5C0A6
:1061200030E3FBAFBDEF641860031200B2E4FFEF91
:10613000C39D5021120FDDF5BC740129F9E43AFA30
:1061400053C0F7E5C030E3FBAEBDEE642860031238
:1061500000B20F80DA43C01053C0F7E5C020E4FB63
:01616000221C
:1059BA0043C02053C0F7E5C030E3FBAFBDEF640836
:1059CA0060031200B253C0DF75BCE153C0F7E5C0F3
:1059DA0030E3FBAFBDEF644060031200B2E490060F
:1059EA00F3F09006F3E0C39DEC6480F8748098505D
:1059FA002943C00453C0F7E5C030E3FBAFBDEF64F1
:105A0A005060031200B2E5BC121045740129F9E492
:105A1A003AFA9006F3E004F080C853C0FB53C0F78B
:105A2A00E5C030E3FBAFBDEF645860031200B24338
:0A5A3A00C01053C0F7E5C020E4FBE4
:015A4400223F
:1062D10075910253E10F43E14075910143BD0843BC
:1062E100BE0875910253E1F043E10475910143BD8C
:1062F1000443BE04E4F59175BE0D43C0409006CD44
:10630100F09006C57435F0A37417F07B017A067915
:10631100C57D021261009006C57480F0A3745DF022
:086321007A0679C51261002221
:1000B6009006CDE0FC701C9006C57435F0A374174D
:1000C600F07B017A0679C57D021261009006CD7437
:1000D60001F022EC6401701C9006C5747CF0A374D8
:1000E600A2F07B017A0679C57D021261009006CDE9
:0F00F6007402F0229006CDE0FF7E006402701CC1
:100105009006C4E004F0E0D3941474809480500306
:0B011500020B89E4F09006CD7403F0AB
:0A01200022EF64034E6003020B643B
:10012A009006F2F07B017A0679C77D06FC1259BA6D
:10013A009006CD7404F07A0679C77D02126278902F
:10014A0006DBEFF07B017A0679CA7D027C00126237
:10015A00789006DBEFF07B017A0679C77D027C0096
:10016A001262789006C9E06F6003020B897B017AFC
:10017A000679CA7D02FC1262789006CCE06F6003B1
:10018A00020B899006C7E0FF9006D0E4F0A3EFF0D7
:10019A00E0F8E4F0E89006D0F09006C8E0FF900698
:1001AA00D1E02FF09006D0E03400F0E0FCA3E0FDAF
:1001BA00E4120E2DE4FBFA79807847120D8B7B004E
:1001CA007AC079DA7844120C82120E669006D0EE62
:1001DA00F0A3EFF0C394C2EE9401400DE0243EF088
:1001EA009006D0E034FEF080149006D0E0FEA3E042
:1001FA00FFC374C29FF074019E9006D0F09006DC93
:10020A00E0FFFB7A00C3940A7480948050489006F9
:10021A009DE064017029FE900699E0FCA3E0FD12BE
:10022A0010797C007D0A12108BC39006D1E09FFFE3
:10023A009006D0E09E9006CEF0A3EFF0020A3A9024
:10024A0006D1E024F1FE9006D0E034FF9006CEF00D
:10025A00A3CEF0020A3AC3EB94BEEA6480948040CB
:10026A0003020A109006DCE0FF7E00C39414748037
:10027A00948050099006F27410F00203B2C3EF940E
:10028A001EEE6480948050099006F27415F0020301
:10029A00B2C3EF9428EE6480948050099006F274F9
:1002AA0019F00203B2C3EF9432EE648094805009CD
:1002BA009006F2741CF00203B2C3EF943CEE648021
:1002CA00948050099006F2741EF00203B2C3EF94B0
:1002DA0046EE6480948050099006F2741FF002037F
:1002EA00B2C3EF9450EE6480948050099006F27481
:1002FA0020F00203B2C3EF945AEE6480948050094E
:10030A009006F27421F00203B2C3EF9464EE6480A3
:10031A00948050099006F27422F00203B2C3EF945B
:10032A006EEE6480948050089006F27423F0807810
:10033A00C3EF9478EE6480948050089006F2742497
:10034A00F08065C3EF9482EE648094805008900632
:10035A00F27425F08052C3EF948CEE64809480503E
:10036A00089006F27426F0803FC3EF9496EE6480FC
:10037A00948050089006F27427F0802CC3EF94A062
:10038A00EE6480948050089006F27428F08019C3B5
:10039A00EF94AAEE6480948050089006F27429F0D3
:1003AA0080069006F2742AF090069DE064016003CC
:1003BA0002068E9006F2742AF090069EE0FAA3E0F6
:1003CA00FBC39401EA9400501C9006F2E0FFC3902C
:1003DA0006D1E09FFE9006D0E094009006CEF0A3EE
:1003EA00CEF0020A3AC3EB9402EA94005037900620
:1003FA009EE0FEA3E0FF7C007D0F12108BC3740108
:10040A009FFFE49EFE9006F2E0FD7C00121079C385
:10041A009006D1E09FFF9006D0E09E9006CEF0A312
:10042A00EFF0020A3A90069EE0FCA3E0FDC39403B3
:10043A00EC940050179006D1E024D6FE9006D0E046
:10044A0034FF9006CEF0A3CEF0020A3AD3ED94051B
:10045A00EC9400503F90069FE024FDFF90069EE03A
:10046A0034FFFE7C007D0512108BC3E49FFFE49EDF
:10047A00FEEF25E0FFEE33FEC39006D1E09FFF902A
:10048A0006D0E09ECF24D6CF34FF9006CEF0A3EF5D
:10049A00F0020A3A90069EE0FEA3E0FFD3940AEE29
:1004AA0094005039EF24FBFFEE34FFFE7C007D05FB
:1004BA0012108BC3E49FFFE49EFE7C007D051210A0
:1004CA0079C39006D1E09FFF9006D0E09ECF24D852
:1004DA00CF34FF9006CEF0A3EFF0020A3A90069EC0
:1004EA00E0FEA3E0FFD39410EE94005039EF24F617
:1004FA00FFEE34FFFE7C007D0612108BC3E49FFFE3
:10050A00E49EFE7C007D0A121079C39006D1E09F1A
:10051A00FF9006D0E09ECF24D8CF34FF9006CEF0CD
:10052A00A3EFF0020A3A90069EE0FEA3E0FFD394FE
:10053A001AEE94005039EF24F0FFEE34FFFE7C00EF
:10054A007D1412108BC3E49FFFE49EFE7C007D0A9B
:10055A00121079C39006D1E09FFF9006D0E09ECF9B
:10056A0024DDCF34FF9006CEF0A3EFF0020A3A90D2
:10057A00069EE0FEA3E0FFD39424EE94005039EFE8
:10058A0024F0FFEE34FFFE7C007D1412108BC3E4CE
:10059A009FFFE49EFE7C007D0A121079C39006D16B
:1005AA00E09FFF9006D0E09ECF24E2CF34FF900672
:1005BA00CEF0A3EFF0020A3A90069EE0FEA3E0FF17
:1005CA00D3942EEE94005039EF24DCFFEE34FFFE74
:1005DA007C007D0A12108BC3E49FFFE49EFE7C0020
:1005EA007D0A121079C39006D1E09FFF9006D0E0F1
:1005FA009ECF24E7CF34FF9006CEF0A3EFF0020A95
:10060A003A90069EE0FEA3E0FFD39438EE940050A1
:10061A0039EF24D2FFEE34FFFE7C007D0A12108BE4
:10062A00C3E49FFFE49EFE7C007D0A121079C3900A
:10063A0006D1E09FFF9006D0E09ECF24ECCF34FF96
:10064A009006CEF0A3EFF0020A3A90069FE024C883
:10065A00FF90069EE034FFFE7C007D6412108BC37F
:10066A0074019FFFE49EFE7C007D0A121079C390FC
:10067A0006D1E09FFF9006D0E09E9006CEF0A3EF51
:10068A00F0020A3A90069EE0FAA3E0FBC39401EA5C
:10069A009400501C9006F2E0FFC39006D1E09FFE42
:1006AA009006D0E094009006CEF0A3CEF0020A3A6B
:1006BA00C3EB9402EA9400503790069EE0FEA3E052
:1006CA00FF7C007D0F12108BC374019FFFE49EFE16
:1006DA009006F2E0FD7C00121079C39006D1E09FEB
:1006EA00FF9006D0E09E9006CEF0A3EFF0020A3A01
:1006FA0090069EE0FEA3E0FFC39403EE9400502F01
:10070A007C007D0F12108BC374019FFFE49EFE9044
:10071A0006F2E0FD7C00121079C39006D1E09FFF3B
:10072A009006D0E09E9006CEF0A3EFF0020A3A902F
:10073A00069EE0FEA3E0FFC39404EE9400502F7CD3
:10074A00007D0F12108BC374019FFFE49EFE90067A
:10075A00F2E0FD7C00121079C39006D1E09FFF9071
:10076A0006D0E09E9006CEF0A3EFF0020A3A900679
:10077A009EE0FEA3E0FFC39405EE9400502F7C0098
:10078A007D0F12108BC374019FFFE49EFE9006F248
:10079A00E0FD7C00121079C39006D1E09FFF90061D
:1007AA00D0E09E9006CEF0A3EFF0020A3A90069EA1
:1007BA00E0FEA3E0FFC39406EE9400502F7C007D78
:1007CA000F12108BC374019FFFE49EFE9006F2E0A5
:1007DA00FD7C00121079C39006D1E09FFF9006D0ED
:1007EA00E09E9006CEF0A3EFF0020A3A90069EE051
:1007FA00FEA3E0FFC39407EE9400502F7C007D0F08
:10080A0012108BC374019FFFE49EFE9006F2E0FD76
:10081A007C00121079C39006D1E09FFF9006D0E0C9
:10082A009E9006CEF0A3EFF0020A3A90069EE0FEF2
:10083A00A3E0FFC39408EE9400502F7C007D0F12B2
:10084A00108BC374019FFFE49EFE9006F2E0FD7CCC
:10085A0000121079C39006D1E09FFF9006D0E09E67
:10086A009006CEF0A3EFF0020A3A90069EE0FEA3AD
:10087A00E0FFC39409EE940050277C007D0F12100C
:10088A008B9006F2E0FD7C00121079C39006D1E04D
:10089A009FFF9006D0E09E9006CEF0A3EFF0020AEA
:1008AA003A90069EE0FEA3E0FFC3940AEE9400503D
:1008BA00277C007D0F12108B9006F2E0FD7C00125F
:1008CA001079C39006D1E09FFF9006D0E09E900673
:1008DA00CEF0A3EFF0020A3A90069EE0FEA3E0FFF4
:1008EA00C3940BEE940050277C007D0F12108B905E
:1008FA0006F2E0FD7C00121079C39006D1E09FFF5A
:10090A009006D0E09E9006CEF0A3EFF0020A3A904D
:10091A00069EE0FEA3E0FFC3940CEE940050277CF1
:10092A00007D0F12108B9006F2E0FD7C0012107908
:10093A00C39006D1E09FFF9006D0E09E9006CEF0CD
:10094A00A3EFF0020A3A90069EE0FEA3E0FFC394EA
:10095A000DEE940050277C007D0F12108B9006F24A
:10096A00E0FD7C00121079C39006D1E09FFF90064B
:10097A00D0E09E9006CEF0A3EFF0020A3A90069ECF
:10098A00E0FEA3E0FFC3940EEE940050267C007DA7
:10099A000F12108B9006F2E0FD7C00121079C390C2
:1009AA0006D1E09FFF9006D0E09E9006CEF0A3EF1E
:1009BA00F0807D90069EE0FEA3E0FFC3940FEE94C4
:1009CA000050267C007D0F12108B9006F2E0FD7C11
:1009DA0000121079C39006D1E09FFF9006D0E09EE6
:1009EA009006CEF0A3EFF08047900699E0FEA3E0D0
:1009FA00FFC39006D1E09FFF9006D0E09E9006CEFE
:100A0A00F0A3EFF0802A9006DCE075F02AA4FFAE8E
:100A1A00F07C007DBE12108BC39006D1E09FFF9040
:100A2A0006D0E09E9006CEF0A3EFF0E490069DF08B
:100A3A009006CAE0FF9006D7E4F0A3EFF0E0F8E4EE
:100A4A00F0E89006D7F09006CBE0FF9006D8E02FAA
:100A5A00F09006D7E03400F0E0FCA3E0FDE4120ECB
:100A6A002DE4FBFA79807847120D8BE4FBFA79C8FA
:100A7A007842120C82120E669006D7EEF0A3EFF0BF
:100A8A009006D4E070209006D0E0FFA3E0A3CFF058
:100A9A00A3EFF09006D7E0FFA3E0A3CFF0A3EFF017
:100AAA009006D47401F09006DCE0F9C3945A74807D
:100ABA00948050419006D7E0FEA3E0FF941EEE9486
:100ACA0000401690069BE0FCA3E0FDEF2DFFEE3CF4
:100ADA009006D5F0A3EFF0806D90069BE0FEA3E0B0
:100AEA00FF9006D8E02FFF9006D7E03E9006D5F09B
:100AFA00A3EFF080519006D7E0FAA3E0FBD3941E4F
:100B0A00EA9400401DE975F010A4FFAEF07C007D68
:100B1A005A12108BEB2FFFEA3E9006D5F0A3EFF0A6
:100B2A0080249006DCE075F008A4FFAEF07C007D1E
:100B3A005A12108B9006D8E02FFF9006D7E03E900D
:100B4A0006D5F0A3EFF09006CEE0FEA3E0FF9006F4
:090B5A00D5E0FCA3E0FD1221FB33
:100B6300229006CDE06404701D9006C574B0F0A316
:100B73007498F07B017A0679C57D02126100E490D6
:070B830006CDF0126F5922AC
:1061610043C02053C0F7E5C030E3FBAEBDEE640889
:1061710060031200B253C0DF75BCE053C0F7E5C045
:1061810030E3FBAEBDEE641860031200B2E4FEEE34
:10619100C3940A74809480501A8FBC53C0F7E5C031
:1061A10030E3FBADBDED642860031200B2EFF4FFF4
:0E61B1000E80DC43C01053C0F7E5C020E4FBB5
:0161BF0022BD
:105B500043C02053C0F7E5C030E3FBAEBDEE6408A0
:105B600060031200B253C0DF75BCE153C0F7E5C05B
:105B700030E3FBAEBDEE644060031200B2E4FEEE23
:105B8000C3940A74809480502343C00453C0F7E543
:105B9000C030E3FBADBDED645060031200B2E5BC64
:105BA0006F60031200B2EFF4FF0E80D353C0FB53BB
:105BB000C0F7E5C030E3FBAFBDEF645860031200EF
:0C5BC000B243C01053C0F7E5C020E4FB66
:015BCC0022B6
:096EC2009006CEE0FEA3E0FF22E1
:096ECB009006D0E0FEA3E0FF22D6
:096ED4009006D2E0FEA3E0FF22CB
:096EDD009006D7E0FEA3E0FF22BD
:096EE6009006D9E0FEA3E0FF22B2
:101EFF00420699000042069B000042069E000041E8
:031F0F00069D002C
:106CDF00E4F5915389F0F591538EF7F591758CC1C9
:0C6CEF00758A0F43A802D2AF4388102220
:03000B00023FF1C0
:103FF100C0E0C083C082C0D0C091759100758CC1F2
:10400100758A0FC28D9006A0E004F0A3E004F0A32E
:10401100E004F0A3E004F0A3E004F0A3E004F0A3C3
:10402100E004F0A3E004F09006A9E004F07006902B
:1040310006A8E004F09006ABE004F070069006AA32
:10404100E004F09006ADE004F070069006ACE004E8
:10405100F09006A0E0C3940174809480400B900618
:10406100AE7401F09006A0E4F09006A1E0C3940ABA
:1040710074809480400B9006AF7401F09006A1E427
:10408100F09006A2E0C3941474809480400B9006D3
:10409100B07401F09006A2E4F09006A3E0C3941E70
:1040A10074809480400B9006B17401F09006A3E4F3
:1040B100F09006A4E0C3942874809480400B90068D
:1040C100B27401F09006A4E4F09006A5E0C3943226
:1040D10074809480400B9006B37401F09006A5E4BF
:1040E100F09006A6E0C3946474809480400B90061F
:1040F100B47401F09006A6E4F09006A7E0C394C85A
:1041010074809480400B9006B57401F09006A7E48A
:10411100F0C39006A9E094F49006A8E09401400D44
:104121009006B67401F09006A8E4F0A3F0C39006DF
:10413100ABE094E89006AAE09403400D9006B774B2
:1041410001F09006AAE4F0A3F0C39006ADE09488D4
:104151009006ACE09413400D9006B87401F09006FF
:10416100ACE4F0A3F0D091D0D0D082D083D0E032B3
:103915009006AEE0640170149006B9E0640170038E
:103925001200B6125924E49006AEF0229006AFE0DC
:103935006401700F123CD0126F3512314DE49006C0
:10394500AFF0229006B0E06401705A7F0412198925
:10395500E4FF1219899006BCE064017042A3E0649B
:1039650001700AFDFF1242EEE49006BDF07D01E410
:10397500FF1242EE125CC3123E639006BEE02402C3
:10398500F0E0D3945F74809480400F9006BD74017D
:10399500F09006BFF0E49006BEF0E49006BCF0E4BB
:1039A5009006B0F0229006B7E064016003023B2E5A
:1039B500126BA49006C2EEF0A3EFF09006B9740165
:1039C500F0A3E004F0E0C3943C74809480500302BB
:1039D5003B13A3E004F0900696E004F09006DCE0CB
:1039E50004F09006DDE004F0126ED4C006C00712A4
:1039F5006ECBD005D004D3EF9DEE9C401F126ED444
:103A0500C006C007126ECBAC06AD07D007D006C303
:103A1500ED9FFFEC9E900699F0A3EFF0126EDDC0CE
:103A250006C007126EE6D005D004D3EF9DEE9C408C
:103A350021126EDDC006C007126EE6AC06AD07D0DA
:103A450007D006C3ED9FFFEC9E90069BF0A3EFF019
:103A5500801F126EE6C006C007126EDDAC06AD070C
:103A6500D007D006C3ED9FFFEC9E90069BF0A3EF19
:103A7500F0900696E0FF7E0064017011900699E0D3
